:020000040800F2
:1000000000C00020AD400008491600084D16000849
:100010005116000855160008591600080000000087
:10002000000000000000000000000000E1360008B1
:100030005D16000800000000813700086116000806
:10004000F5400008F5400008F5400008F5400008BC
:10005000F5400008F5400008F5400008F5400008AC
:10006000F5400008F5400008F5400008F54000089C
:10007000F5400008F5400008F54000086916000842
:1000800079160008F5400008F5400008F540000822
:10009000F5400008F5400008F5400008F54000086C
:1000A000F5400008F5400008F5400008F54000085C
:1000B000F5400008F540000889160008F5400008E2
:1000C000F5400008F5400008F5400008F54000083C
:1000D000F540000899160008F516000851170008A9
:1000E000F5400008F5400008F5400008F54000081C
:1000F000F5400008F5400008F5400008F54000080C
:10010000F5400008F5400008F5400008F5400008FB
:10011000F5400008F5400008F5400008F5400008EB
:10012000F5400008F5400008F5400008F5400008DB
:1001300000000000000000000000000000000000BF
:1001400000000000000000000000000000000000AF
:10015000000000000000000000000000000000009F
:10016000000000000000000000000000000000008F
:10017000000000000000000000000000000000007F
:10018000000000000000000000000000000000006F
:10019000000000000000000000000000000000005F
:1001A000000000000000000000000000000000004F
:1001B000000000000000000000000000000000003F
:1001C000000000000000000000000000000000002F
:1001D000000000000000000000000000000000001F
:0401E0005FF8E0F1F3
:1001F000044B05481B1A062B02D9044B03B11847C0
:10020000704700BF73000020700000200000000055
:1002100005490648091A891001EBD171491002D02D
:10022000034B03B118477047700000207000002096
:100230000000000010B5064C237843B9FFF7D8FF43
:10024000044B13B10448AFF300800123237010BDA9
:100250007000002000000000F840000808B5084BBE
:100260001BB108490848AFF300800848036813B978
:10027000BDE80840CCE7064B002BF9D09847F7E7DC
:100280000000000074000020F8400008700000200A
:100290000000000070B50F4E0F4D761BB61018BF52
:1002A000002405D0013455F8043B9847A642F9D103
:1002B0000A4E0B4D03F020FF761BB61018BF00242A
:1002C00006D0013455F8043B9847A642F9D170BDD9
:1002D00070BD00BFD8420008D8420008DC420008C8
:1002E000D8420008844641EA000313F0030349D1D1
:1002F000403A23D30B6803604B6843608B6883608C
:10030000CB68C3600B6903614B6943618B6983618F
:10031000CB69C3610B6A03624B6A43628B6A836277
:10032000CB6AC3620B6B03634B6B43638B6B83635F
:10033000CB6BC36340304031403ADBD230320BD319
:100340000B6803604B6843608B688360CB68C36055
:1003500010301031103AF3D20C3205D351F8043B6F
:1003600040F8043B043AF9D2043208D0D2071CBF4B
:1003700011F8013B00F8013B01D30B880380604674
:10038000704700BF082A13D38B07B1D010F00303C6
:10039000AED0C3F10403D21ADB071CBF11F8013B36
:1003A00000F8013BA4D331F8023B20F8023B9FE761
:1003B000043AD9D3013A11F8013B00F8013BF9D2D4
:1003C0000B7803704B7843708B788370604670476E
:1003D0000CB4F0B54FF6FF779DB022AC54F8042B67
:1003E0006FF000452346029106914FF4027602A970
:1003F0000194ADF81670ADF814600495079500F0FF
:1004000013F9029B00221A701DB0BDE8F04002B043
:10041000704700BF0EB40146F0B54FF6FF779CB0B1
:1004200021AC54F8042B0D4823466FF0004502918F
:1004300006914FF4027602A900680194ADF8167097
:10044000ADF814600495079500F0EEF8029B0022C9
:100450001A701CB0BDE8F04003B0704700000020E7
:100460002DE9F84F8E680C469E421F46904612D8E2
:100470008B8913F4906F10D1354620682A46414687
:1004800000F024FCA36822689E1B1544A66025602A
:100490000020BDE8F88F1E46EEE74D692268096925
:1004A00005EB4505C1EB020A814605EBD5750AF15E
:1004B00001006D103844A8422A4684BF05462A46EA
:1004C0005B0510D51146484600F0AAFC8346F8B1FA
:1004D00052462169FFF706FFA38923F4906343F096
:1004E0008003A38104E0484600F0F8FC834658B13D
:1004F000CAEB05030BEB0A0065613E46C4F810B079
:100500002060A3603D46B9E72169484600F042FCFF
:100510000C23C9F80030A3894FF0FF3043F04003AB
:10052000A381BDE8F88F00BF2DE9F04F936883B039
:100530009046002B72D04FF000090D464C46834682
:10054000166808688B68002C45D09C421F469A4666
:1005500046D3AB8913F4906F2DD06F69296907EBEF
:100560004707C1EB000A07EBD777601C7F105044A8
:10057000B8423A4684BF07463A465B0533D5114632
:10058000584600F04DFC002837D0524629690190AA
:10059000FFF7A8FEAA89019B22F4906242F0800234
:1005A000AA81CAEB070203EB0A006F61A246274645
:1005B0002B612860AA605246494600F087FBD8F8B4
:1005C0000820AB682868DB1B5044141BAB60286014
:1005D000C8F8084014B3D6F8009074680836B2E73B
:1005E0002746A246E7E7584600F078FC0346002875
:1005F000D7D12969584600F0CDFB0C23CBF8003049
:10060000AB89002243F040034FF0FF30AB81C8F8C4
:100610000820C8F8042003B0BDE8F08F0020C8F817
:10062000040003B0BDE8F08F2DE9F04F0F46898933
:100630009DB00C0692460393804603D53B69002B80
:1006400000F0F78030238DF82A309AF8003000212E
:1006500020227F4DDFF8FC9109918DF82920002B95
:1006600000F08C80252B544603D117E0252B00F099
:100670008E8014F8013F002BF8D1B4EB0A0B7DD02B
:1006800052465B4639464046FFF7EAFE013075D0D8
:10069000099B22785B440993002A6FD000224FF017
:1006A000FF31631C0492079206928DF853201A9230
:1006B0000591012405E0049A401B04FA00F0104360
:1006C00004901978052262489A4600F0B9FA0AF1B6
:1006D00001030028EFD1049BD80644BF20228DF8E7
:1006E000532019079AF8001044BF2B228DF853208D
:1006F0002A296FD0A1F13002092A0BD8079B1AF8DA
:10070000011F03EB830302EB4303A1F13002092A2B
:10071000F5D907932E2945D003224E4800F090FAD0
:1007200050B10499C9EB0000402202FA00F041EAFE
:1007300000030AF1010A04939AF8003006221946D0
:1007400045488DF828300AF1010A00F079FA0028AE
:1007500065D0424BFBB103AB00933A46404B04A932
:100760004046AFF300800646721C07D0099B334415
:1007700009939AF80030002B7FF474AFBB895B06B5
:1007800054BF09984FF0FF301DB0BDE8F08FB4EBB7
:100790000A0B83D074E7039B073323F00703083366
:1007A0000393E3E79AF801102A291FD0A1F1300240
:1007B0000023092A0AF1010A0593ADD81AF8011F8E
:1007C00003EB830302EB4303A1F13002092AF5D9BD
:1007D0000593A1E7039A116804320029039218DBFC
:1007E00007919AF801100AF1010A93E7039B0AF1B5
:1007F00002001A680433002A0393B8BF4FF0FF3396
:100800000592AEBF9AF802109AF80210059382463C
:1008100082E7494243F0020307910493E1E703AB07
:1008200000933A460E4B04A9404600F0B5F8064640
:100830009AE7402100F0F4FA3860386110B14023A3
:100840007B61FFE60C23C8F800304FF0FF309BE7D8
:100850009C420008A4420008A842000800000000D2
:10086000610400082DE9F0470D690C46896891463E
:100870008D422A46B8BF0A46C9F8002094F84310B2
:1008800006461F46DDF8208011B10132C9F800206C
:10089000236899065DD5D9F800200232C9F80020F6
:1008A000236813F0060F19461DD1E1688A1A002A41
:1008B000D8BF194617DD04F1190A002505E0E368E1
:1008C000D9F800209B1AAB420CDD01235246394671
:1008D0003046C047013005F10105F0D14FF0FF303F
:1008E000BDE8F087216894F84330003318BF012336
:1008F0008A060AD5E218302182F8431094F8451090
:100900005A1C224482F84310023304F14302394650
:100910003046C0470130E1D0236803F00603042BC2
:1009200029D0A36822699342C8BF4FF000092FDD88
:100930009B1A99441A34002501E04D4528D0012323
:10094000224639463046C047013005F10105F4D151
:10095000C4E713F0060F08D1E168D9F800208A1A1D
:10096000002AD8BF1946A6DCBDE794F8433000330F
:1009700018BF0123C9E7D9F80000E168A36822691C
:10098000091A934221EAE179D2DCB9F1000FD1D101
:100990000020BDE8F08700BF2DE9F0430C46097E3A
:1009A00085B06E2906461746984604F1430C0C980C
:1009B0005AD01AD8632900F0128100F2D68000299B
:1009C0005CD0582940F0F58084F84510226803680F
:1009D0001506DFF864E203F104011ED4550653BF87
:1009E0001B6801601B88016019E0732900F0CF804B
:1009F0007ED86F2900F0E480702940F0DA80226808
:100A000042F020022260782384F8453003681506FE
:100A1000DFF828E203F10401E0D51B680160D0078C
:100A200044BF42F020022260002B40F090802268F8
:100A3000102122F020022260002284F84320606806
:100A40000028A060C0F28880226822F004022260A0
:100A5000002B62D1002840F08180654608296AD0C9
:100A6000C5EB0C0323610CE023681A0640F1D58026
:100A700003686269191D01601B681A6065460023DE
:100A80002361CDF800803B4603AA21463046FFF79C
:100A9000E9FE013021D02A46236939463046C04755
:100AA00001301AD02368039813F0020FE36819D0BD
:100AB0001A1A002A16DD04F11909002504E0E3687A
:100AC00003981A1AAA420DDD01234A4639463046D8
:100AD000C047013005F10105F1D14FF0FF3005B0FD
:100AE000BDE8F0839842B8BF184605B0BDE8F08372
:100AF000752965D078295CD1226884E761682D204A
:100B00000029C3F10003A16084F8430021DB22F037
:100B10000402DFF824E122600A216546B3FBF1F20A
:100B200001FB12331EF80300134605F8010D002ADD
:100B3000F4D1082994D12368D90791D56268236933
:100B40009A428DDC302305F8013C013D88E71021F5
:100B500072E7DFF8E4E00A21002BDED19EF80030D6
:100B600004F1420584F8423078E7642901D069290C
:100B70001FD122680368150603F104013AD51B68EA
:100B80000160002BBADBDFF8B0E00A2157E7036809
:100B90006268191D01601D680021284600F050F8A8
:100BA000002846D0401B60602061002384F8433059
:100BB00067E7012384F84210236104F14205F4E75A
:100BC00023681A061ED503681A1D1B680260227E60
:100BD000DFF864E06F2A14BF0A2108212CE70368BC
:100BE0000122191D1B6804F14205016084F842309E
:100BF0002261DAE7550653BF1B680160B3F9003084
:100C00000160BEE713F0400F036803F1040215BF53
:100C100002601B681B880260D9E713F0400F03686D
:100C2000626903F1040101601B6814BF1A801A6035
:100C300024E76068B8E700BFB0420008C44200087B
:100C4000830770B4CDB23DD0531E02B30278AA42DE
:100C50001ED0421C04E0D3B10478013BAC4217D053
:100C600012F0030F104602F10102F4D1032B11D848
:100C700053B30278AA420BD00344421C02E001782D
:100C8000A94205D09342104602F10102F7D100209B
:100C900070BC704704460E0206F47F462E4346EAB7
:100CA0000646226820467240A2F1013121EA020282
:100CB00012F0803F04F10404DBD1043B032B2046F7
:100CC000EFD8D5E71346D1E71846E1E78842F0B5FB
:100CD0000DD98B1898420AD28118002A51D09A1A3D
:100CE00013F8014D934201F8014DF9D1F0BD0F2ADF
:100CF00048D941EA00039B0746D1154600F110048C
:100D000001F1100353F8106C103D44F8106C53F8C7
:100D10000C6C0F2D44F80C6C53F8086C04F11004A3
:100D200044F8186C53F8046C03F1100344F8146C85
:100D3000E8D8A2F1100323F00F0302F00F0E1033D6
:100D4000BEF1030F1944034421D90E4674461D1FFA
:100D500056F8047B043C032C45F8047FF8D8AEF128
:100D6000040424F0030404342344214402F0030265
:100D700062B1013B0A4411F8014B8A4203F8014F6A
:100D8000F9D1F0BD0346F3E70346F2E7F0BD724642
:100D9000EEE700BF30B481B151F8043C0439002BB8
:100DA000B8BFC9181D4B1A682AB18A420AD9086807
:100DB0000C18A24225D04A60196030BC70478B42A3
:100DC00003D81A465368002BF9D1146815198D42BF
:100DD0000CD007D808680C189C4218D030BC4B6067
:100DE000516070470C23036030BC704709680C44A5
:100DF000111999421460E0D10ACB0C44146053607D
:100E0000DBE714685268204481E80500D4E71C68D9
:100E10005B68204481E809005160CEE78C00002027
:100E200070B5CD1C25F0030508350C2D38BF0C25F9
:100E3000002D06463BDBA94239D827490A6852B142
:100E400013685B1B04D436E023685B1B1AD522466B
:100E50005468002CF8D149681F4C002936D0294627
:100E6000304600F05FF8431C21D0C41C24F003047A
:100E7000A04205D0211A304600F054F8013016D0B7
:100E8000256004E00B2B0DD923601C44256004F180
:100E90000B0020F00700231DC31A02D05A42E25073
:100EA00070BD70BD94420ED063685360EFE70C23B1
:100EB0003360002070BD0B2B03D8144653680B60C1
:100EC000E5E71446E0E713461446F8E7304600F03D
:100ED00029F86060C3E700BF8C000020F9B1F8B5C5
:100EE00006461546B2B10C4600F02EF8854201D8F0
:100EF0002046F8BD29463046FFF792FF074668B105
:100F00002A462146FFF7EEF930462146FFF742FF19
:100F10003846F8BDFFF73EFF2846F8BDF8BD11463C
:100F2000FFF77EBF38B5074C00230546084623600F
:100F300000F014F8431C00D038BD2368002BFBD010
:100F40002B6038BD9C11002051F8040C0028BEBF56
:100F5000091851F8043CC01804387047044A054980
:100F60001368002B08BF0B461844106018467047E2
:100F700094000020A011002082B0064B5A6942F074
:100F800001025A615B6903F001030193019B02B006
:100F9000704700BF001002402DE9F04188B0264B99
:100FA0009A6942F020029A619A6902F02002019245
:100FB000019A9A6942F004029A619A6902F0040265
:100FC0000292029A9A6942F008029A619B6903F0C0
:100FD00008030393039BDFF86C8000224FF48071B9
:100FE000404601F0A3FE154F00220421384601F0CF
:100FF0009DFE4FF480730493012605960025069507
:101000000224079404A9404601F09AFD04230493A6
:1010100005960695079404A9384601F091FD4FF412
:101020008043049305960695079404A9044801F0AB
:1010300087FD08B0BDE8F0810010024000140140B7
:10104000000C01400008014008B5002206212520BF
:1010500002F064F9252002F093F9002205212620F0
:1010600002F05CF9262002F08BF9002207212720EC
:1010700002F054F9272002F083F900220521102004
:1010800002F04CF9102002F07BF9002206210F201B
:1010900002F044F90F2002F073F908BD08B5344C92
:1010A00001223449204600F0D9FF334D0A231D2286
:1010B0003249284600F060FF0A230D2230492046BD
:1010C00000F05AFF322002F0E1FF0A2308222D49E6
:1010D000204600F051FF40F6B83002F0D7FF0A2357
:1010E0000D222949204600F047FF322002F0CEFFB2
:1010F0000A2320222549204600F03EFF42F22830F4
:1011000002F0C4FF0A2325222149204600F034FFC3
:10111000322002F0BBFF0A230E221E49204600F0B7
:101120002BFF322002F0B2FF0A2309221A4920467F
:1011300000F022FF322002F0A9FF0A230C221749F7
:10114000284600F019FF42F2107002F09FFF084C91
:101150000A230E220F49204600F00EFF322002F033
:1011600095FF0A2309220E49204600F005FFEAE711
:1011700014110020F40D0020D00E00204C41000876
:101180006C4100087C410008884100089841000833
:10119000BC410008E4410008F44100080042000896
:1011A00010420008284A936943F001039361A2F5B5
:1011B0008832536843F000735360244B5A6842F0FE
:1011C00020025A605A685B6813F0200F3BD0204A17
:1011D000D36843F08073D3601E4B08221A6102214A
:1011E000C3F8F0104FF48072C3F804231A4AA3F531
:1011F0007C331A604FF06043A2F16952A2F5A2124B
:10120000A2F6AC32C3F8B02F1448C3F8800E4FF0EA
:10121000FF30C3F8000E03F58223C3F8B02F1A681D
:1012200042F480621A604FF419621A60C3F8001227
:101230004FF080725A629A621822DA6244F26F02A8
:101240009A606F221A62704700100240002004E08A
:10125000F0ED00E0000004E0011A01000F000100C1
:10126000064B074A1A6208225A6222229A62054AEB
:101270001A6302225A6303229A637047001000E047
:10128000000C0140A000002010B582B00022042113
:101290001E4801F04BFD1E4B1B78012B2AD10E225C
:1012A0001C4B1A6000240CE01B4B1A5D1B4901A863
:1012B000FFF7B0F80A23012201A9194800F05CFEEB
:1012C0000134184B1B789C42EEDB0A23022216499C
:1012D000134800F051FE002303E000210E4AD154D0
:1012E0000133104A12789342F7DB00230D4A137042
:1012F000074A1370FF2208490C4800F0DDFE012266
:101300000421024801F012FD02B010BD001401409A
:10131000A4000020A0000020100F00201C420008A4
:10132000D00E002011110020F041000814110020FF
:1013300010B588B000220421234801F0F7FC234BAC
:101340001B78012B34D10A22214B1A6000240CE0B7
:10135000204B1A5D204907A8FFF75CF89DF81C2078
:1013600008AB234403F81C2C01341C4B1B789C4213
:10137000EEDB1B4C0A230F221A49204600F0FCFD2D
:10138000052002F083FE0A23182201A9204600F05E
:10139000F3FD002303E000210E4AD15401330F4A2C
:1013A00012789342F7DB00230C4A1370074A13703C
:1013B000FF2208490C4800F07FFE01220421024868
:1013C00001F0B4FC08B010BD001401409C000020E6
:1013D000A0000020101000201C4200083C0E00203D
:1013E0001411002020420008D00E002008B54FF450
:1013F000FA7002F04BFEFFF747FF4FF4FA7002F06D
:1014000045FEFFF795FFF2E708B502680F4B9A42D9
:101410001AD101F02FF80E4A136801331360322BF2
:1014200005D100224FF480410A4801F07FFC084BAF
:101430001B68642B08D101224FF48041054801F05C
:1014400075FC0022024B1A6008BD00BF0008004076
:1014500098000020000C0140FEE700BF08B50B48D3
:101460000B4B03604FF4E133436000238360C360A0
:1014700003610C2242618361C36100F04BFD20B126
:1014800040F2A3110348FFF7E7FF08BDD00E00208C
:10149000003801403042000808B50B480B4B036090
:1014A0004FF4E133436000238360C36003610C2287
:1014B00042618361C36100F02DFD20B14FF4DB7107
:1014C0000348FFF7C9FF08BD141100200044004085
:1014D0003042000808B50B480B4B03604FF4E13372
:1014E000436000238360C36003610C224261836117
:1014F000C36100F00FFD20B140F2C9110348FFF7AE
:10150000ABFF08BD400E00200048004030420008FC
:1015100000B591B0012206924FF480330793002169
:1015200008910A9202220D920E934FF4E0130F934A
:1015300006A800F0C7FF20B140F261111448FFF780
:101540008BFF0F23019302210291002303934FF499
:1015500080620492059301A801F0ECF920B140F2F9
:101560006F110B48FFF778FF01F0A6FA094BA3FBB8
:101570000030800901F010FF042001F023FF002259
:101580000F214FF0FF3001F0C9FE11B05DF804FBF0
:1015900030420008D34D621070B58AB000F058FF99
:1015A000FFF7B6FFFFF7F8FCFFF7E6FCFFF756FF83
:1015B000FFF772FFFFF78EFFFFF7F4FDFFF750FE16
:1015C000FFF742FD194C0A2305221949204600F075
:1015D000D3FC184B1A68D36843F01003D3600A2376
:1015E0000B221549204600F0C7FC2268D36843F05F
:1015F0001003D360114C05AD26460FCE0FC53368DE
:101600002B60002105A802F027FD0D4B18606D46E8
:1016100014340FCC0FC523682B600021684602F0FC
:101620001BFD084B186002F011FDFEE7D00E0020F4
:101630003C420008141100204442000810410008F8
:1016400054110020840E0020704700BFFEE700BF49
:10165000FEE700BFFEE700BFFEE700BF704700BF28
:1016600008B502F01BFD08BD08B5024801F0D2FC28
:1016700008BD00BF880E002008B5024801F0CAFC72
:1016800008BD00BFF80D002008B5024800F0BCF905
:1016900008BD00BF5811002010B582B0104C204684
:1016A00000F040FE23680F4A934216D11A6812F0E8
:1016B000100F12D0002201921A6801925B68019308
:1016C000019B204600F04CFD074B1B685B68DB4329
:1016D000064A13700122064B1A7002B010BD00BFFB
:1016E000D00E002000380140880E00203C0E002063
:1016F0009C00002010B582B0104C204600F012FE75
:1017000023680F4A934216D11A6812F0100F12D0B4
:10171000002201921A6801925B680193019B2046A6
:1017200000F01EFD074B1B685B68DB43064A137025
:101730000122064B1A7002B010BD00BF1411002028
:1017400000440040F80D002011110020A4000020EA
:1017500008B5024800F0E6FD08BD00BF400E0020BD
:1017600000B583B0244B9A6942F001029A619A69EC
:1017700002F001020092009ADA6942F08052DA61C6
:10178000DB6903F080530193019B032001F0B4FD5A
:10179000002211466FF00B0001F0C0FD002211463F
:1017A0006FF00A0001F0BAFD002211466FF0090047
:1017B00001F0B4FD002211466FF0040001F0AEFD0F
:1017C000002211466FF0030001F0A8FD00220F2156
:1017D0006FF0010001F0A2FD00220F214FF0FF3059
:1017E00001F09CFD054A536823F0E06343F0007369
:1017F000536003B05DF804FB00100240000001409C
:1018000070B588B0044603684A4A934235D14A4BC2
:101810009A6942F480429A619B6903F48043019380
:10182000019B4FF400730493022305930323079352
:10183000424E04A9304601F083F94FF480630493CB
:1018400000250595069504A9304601F079F93C4834
:101850003C4B0360456085608023C3600561456142
:101860008561C56101F07EFA18B189213648FFF71C
:10187000F3FD334B63635C625AE0344A934234D1E4
:101880002D4BDA6942F40032DA61DB6903F400338C
:101890000293029B042304930223059303230793DB
:1018A000264E04A9304601F04BF908230493002585
:1018B0000595069504A9304601F042F92448254BC8
:1018C0000360456085608023C36005614561202316
:1018D0008361C56101F046FA18B1B4211A48FFF7D7
:1018E000BBFD1B4B63635C6222E01B4A93421FD12A
:1018F000114BDA6942F48022DA61DB6903F4802358
:101900000393039B4FF48063049302230593032303
:101910000793124C04A9204601F012F94FF400631A
:10192000049300230593069304A9204601F008F9C7
:1019300008B070BD003801400010024000080140AE
:10194000880E002058000240604200080044004019
:10195000F80D00206C00024000480040000C0140DF
:1019600000B589B0002201461E2001F0D7FC1E20E0
:1019700001F006FD154BDA6942F00402DA61DB6919
:1019800003F004030193019B02A903A801F0BAF834
:1019900001F098F840000E4BA3FB00239B0C013B89
:1019A0000C480D4A026040F2E732C26043600023F7
:1019B0000361836000F02EF918B9064800F010F8B2
:1019C00000E0012009B05DF804FB00BF00100240F8
:1019D00083DE1B435811002000080040704700BF01
:1019E0000268D36843F00103D3600268136843F0D0
:1019F0000103136000207047704700BF704700BFAD
:101A0000704700BF704700BF10B5044603681A69ED
:101A100012F0020F17D0DA6812F0020F13D06FF035
:101A200002021A610123037703689B6913F0030F15
:101A300002D0FFF7E3FF04E0FFF7DEFF2046FFF7E9
:101A4000DFFF0023237723681A6912F0040F19D0EF
:101A5000DA6812F0040F15D06FF004021A61022345
:101A6000237723689B6913F4407F03D02046FFF758
:101A7000C5FF05E02046FFF7BFFF2046FFF7C0FF88
:101A80000023237723681A6912F0080F19D0DA6847
:101A900012F0080F15D06FF008021A6104232377A3
:101AA0002368DB6913F0030F03D02046FFF7A6FF7E
:101AB00005E02046FFF7A0FF2046FFF7A1FF002327
:101AC000237723681A6912F0100F19D0DA6812F020
:101AD000100F15D06FF010021A61082323772368C6
:101AE000DB6913F4407F03D02046FFF787FF05E052
:101AF0002046FFF781FF2046FFF782FF0023237770
:101B000023681A6912F0010F09D0DA6812F0010F88
:101B100005D06FF001021A612046FFF775FC2368BB
:101B20001A6912F0800F09D0DA6812F0800F05D020
:101B30006FF080021A61204600F08AF823681A6963
:101B400012F0400F09D0DA6812F0400F05D06FF0A4
:101B500040021A612046FFF755FF23681A6912F008
:101B6000200F09D0DA6812F0200F05D06FF02002A4
:101B70001A61204600F06AF810BD00BF0368244ACD
:101B8000904212D002F5006290420ED0B0F1804F28
:101B90000BD0A2F59832904207D002F580629042B5
:101BA00003D002F58062904203D123F070034A68AB
:101BB0001343174A904212D002F5006290420ED0B1
:101BC000B0F1804F0BD0A2F59832904207D002F5C9
:101BD0008062904203D002F58062904203D123F4E8
:101BE0004073CA68134323F080034A6913430360B8
:101BF0008B68C3620B688362054B984203D003F580
:101C00000063984201D10B6903630123436170476C
:101C1000002C0140B8B110B5044690F83D3013F0E7
:101C2000FF0F04D1002380F83C30FFF7D7FE0223DA
:101C300084F83D30211D2068FFF7A0FF012384F8C0
:101C40003D30002010BD0120704700BF704700BF2D
:101C5000704700BF0268D36823F0C003D36020231D
:101C600080F83930704700BF0268D36823F490735E
:101C7000D3600268536923F001035361202380F885
:101C80003A30704790F83930DBB2212B2BD1836882
:101C9000B3F5805F0FD1036A02681B88C3F30803A2
:101CA000536003691BB9036A0233036209E0036AE4
:101CB0000133036205E00268036A591C01621B7864
:101CC0005360C38C9BB2013B9BB2C3846BB9026867
:101CD000D36823F08003D3600268D36843F04003E5
:101CE000D36000207047022070470020704700BF7B
:101CF0002DE9F843814601680B6923F44052C3681B
:101D000013430B61816803691943436919430068F0
:101D1000C26822F4B05323F00C030B43C360D9F81C
:101D200000104B6923F44072D9F8183013434B610B
:101D3000D9F800505B4B9D4259D100F0D3FE00EB27
:101D4000800000EB8000D9F80440A400B0FBF4F45C
:101D5000554EA6FB04346409240100F0C3FE00EBD9
:101D6000800000EB8000D9F804309B00B0FBF3F753
:101D700000F0B8FE00EB800000EB8000D9F80430E2
:101D80009B00B0FBF3F3A6FB03235B094FF0640851
:101D900008FB13731B013233A6FB03235B0903F01B
:101DA000F0031C4400F09EFE00EB800000EB80007E
:101DB000D9F804309B00B0FBF3F700F093FE00EB82
:101DC000800000EB8000D9F804309B00B0FBF3F3F7
:101DD000A6FB03235B0908FB13731B013233A6FB2D
:101DE0000323C3F343131C44AC60BDE8F88300F045
:101DF00069FE00EB800000EB8000D9F80440A400ED
:101E0000B0FBF4F4284EA6FB04346409240100F06E
:101E100059FE00EB800000EB8000D9F804309B00F5
:101E2000B0FBF3F700F04EFE00EB800000EB80000B
:101E3000D9F804309B00B0FBF3F3A6FB03235B0946
:101E40004FF0640808FB13731B013233A6FB032316
:101E50005B0903F0F0031C4400F034FE00EB80004B
:101E600000EB8000D9F804309B00B0FBF3F700F0E2
:101E700029FE00EB800000EB8000D9F804309B00C5
:101E8000B0FBF3F3A6FB03235B0908FB13731B01F1
:101E90003233A6FB0323C3F343131C44AC60BDE8F9
:101EA000F88300BF003801401F85EB512DE9F04158
:101EB00005460F4616469846069C1EE0B4F1FF3FC5
:101EC0001BD02CB100F0E2FAC8EB0000844214D21F
:101ED0002A68D36823F4D073D3602A68536923F047
:101EE00001035361202385F8393085F83A30002307
:101EF00085F838300320BDE8F0812B681B6837EA8D
:101F000003030CBF01230023B342D7D00020BDE858
:101F1000F08100BF68B310B5044690F8393013F073
:101F2000FF0F04D1002380F83830FFF769FC242329
:101F300084F839302268D36823F40053D3602046F4
:101F4000FFF7D6FE2268136923F4904313612268D9
:101F5000536923F02A0353612268D36843F4005382
:101F6000D3600020E063202384F8393084F83A30CD
:101F700010BD0120704700BF2DE9F04182B01E4620
:101F800090F83930DBB2202B56D104460D469046EE
:101F9000002953D0002A53D090F83830012B51D06B
:101FA000012380F838300023C363212380F83930BF
:101FB00000F06CFA0746A4F82480A4F8268027E0F5
:101FC000E38C9BB2013B9BB2E384A368B3F5805FD3
:101FD00012D100963B46002280212046FFF766FF83
:101FE00090BB22682B88C3F30803536023690BB9A5
:101FF00002350DE001350BE000963B4600228021C2
:102000002046FFF753FF08BB23682A785A60013542
:10201000E38C9BB2002BD3D100963B46002240219B
:102020002046FFF743FF034690B9202284F8392069
:10203000002284F838200CE002230AE0012308E0A3
:10204000012306E0022304E0032302E0032300E06F
:102050000323184602B0BDE8F08100BF90F83A3083
:10206000DBB2202B20D109B312B390F83830012B0A
:1020700020D081628285C2850023C363222280F83A
:102080003A2080F838300168CA6842F48072CA6029
:1020900001684A6942F001024A610168CA6842F077
:1020A0002002CA601846704702207047012070471E
:1020B000012070470220704730B583B090F83A4055
:1020C000E4B2202C3DD100293DD0002A3DD090F82B
:1020D0003830012B3BD013460A460446012180F8D4
:1020E0003810826283850025C563222180F83A106A
:1020F000416B18488862616B1748C862616B17486A
:102100000863616B4D6321680431606B00F07CFEF5
:10211000019523681A6801925A680192019A84F81D
:102120003850DA6842F48072DA602268536943F00A
:10213000010353612268536943F040035361284609
:1021400006E0022004E0012002E0012000E002207D
:1021500003B030BDE1210008C5220008D5220008E7
:1021600010B5044601684B6903F0800290F83930DD
:10217000DBB2212B0BD152B14B6923F080034B61B1
:10218000006B08B100F07AFE2046FFF763FD21687E
:102190004B6903F0400294F83A30DBB2222B0BD1AA
:1021A00052B14B6923F040034B61606B08B100F002
:1021B00065FE2046FFF758FD002010BD704700BFA8
:1021C00008B50168CB6823F04003CB60202380F87A
:1021D0003930FFF7F3FF002008BD00BF704700BF94
:1021E00008B5436A0268126812F0200F13D100226A
:1021F000DA851968CA6822F48072CA6019684A6967
:1022000022F001024A6119684A6922F040024A61DB
:10221000202283F83A201846FFF7E0FF08BD00BFF0
:1022200008B590F83A30DBB2222B44D18368B3F57D
:10223000805F13D1826A036943B903685B68C3F3A3
:1022400008031380836A0233836218E003685B68C3
:10225000DBB21380836A0133836210E0036933B910
:10226000836A5A1C8262026852681A7007E0826AA6
:10227000531C836203685B6803F07F031370C38D94
:102280009BB2013B9BB2C385BBB90268D36823F004
:102290002003D3600268D36823F48073D36002689C
:1022A000536923F001035361202380F83A30FFF78C
:1022B00095FF002008BD022008BD002008BD00BF1A
:1022C000704700BF08B5406AFFF7FAFF08BD00BFBE
:1022D000704700BF10B5446A23685B6903F0800251
:1022E00094F83930DBB2212B05D122B10023E384ED
:1022F0002046FFF7AFFC23685B6903F0400294F8C7
:102300003A30DBB2222B05D122B10023E3852046EF
:10231000FFF7AAFCE36B43F01003E3632046FFF7EB
:10232000D7FF10BD10B5044602681368D168526922
:1023300013F00F0009D113F0200F06D011F0200F79
:1023400003D02046FFF76CFF10BD002862D012F0CA
:10235000010202D111F4907F5CD013F0010F06D07E
:1023600011F4807F03D0E06B40F00100E06313F0D4
:10237000040F04D01AB1E06B40F00200E06313F0E8
:10238000020F04D01AB1E06B40F00400E06313F0D8
:10239000080F04D01AB1E26B42F00802E263E26B6C
:1023A000002A4AD013F0200F05D011F0200F02D0E0
:1023B0002046FFF735FF23685B6903F04003E26BBB
:1023C00012F0080F00D1FBB12046FFF74DFC236847
:1023D0005A6912F0400F13D05A6922F040025A6134
:1023E000636B4BB1154A5A63606B00F05FFD20B31D
:1023F000606B436B984710BD2046FFF769FF10BD27
:102400002046FFF765FF10BD2046FFF761FF002360
:10241000E36310BD13F0800F06D011F0800F03D0DE
:102420002046FFF72FFC10BD13F0400F05D011F030
:10243000400F02D02046FFF7C3FE10BD4124000824
:1024400008B5406A0023C385C384FFF741FF08BD78
:1024500008B5074A136843F010031360032000F027
:102460004BFF0020FFF77CFAFFF77AF9002008BD48
:1024700000200240034A1368034909780B441360A3
:10248000704700BF9811002064000020014B1868BD
:10249000704700BF9811002082B0084B1B68084AA3
:1024A000A2FB03235B0A00FB03F0019000BF019B2A
:1024B0005A1E0192002BF9D102B07047680000202B
:1024C000D34D621070B582B00446036813F0010F5B
:1024D0006BD0A84B5B6803F00C03042B0AD0A54B10
:1024E0005B6803F00C03082B0DD1A24B5B6813F45F
:1024F000803F08D09F4B1B6813F4003F55D06368A2
:10250000002B52D1B8E16368B3F5803F05D1994AF9
:10251000136843F48033136026E063B903F180430A
:1025200003F504331A6822F480321A601A6822F420
:1025300080221A6018E0B3F5A02F0CD103F180437C
:10254000A3F53C331A6842F480221A601A6842F4F8
:1025500080321A6008E0874B1A6822F480321A60D1
:102560001A6822F480221A6063687BB1FFF78EFF3D
:10257000054605E0FFF78AFF401B642800F27E81D4
:102580007C4B1B6813F4003FF4D00EE0FFF77EFF96
:10259000054605E0FFF77AFF401B642800F27081D2
:1025A000744B1B6813F4003FF4D1236813F0020F3F
:1025B00050D0704B5B6813F00C0F0AD06D4B5B680A
:1025C00003F00C03082B16D16A4B5B6813F4803FB1
:1025D00011D1684B1B6813F0020F03D02369012B44
:1025E00040F05081634A136823F0F803616943EABD
:1025F000C10313602EE02369D3B101225E4B1A6040
:10260000FFF744FF054605E0FFF740FF401B0228A7
:1026100000F23A81574B1B6813F0020FF4D0554A71
:10262000136823F0F803616943EAC103136011E002
:102630000022514B1A60FFF729FF054605E0FFF71E
:1026400025FF401B022800F221814A4B1B6813F032
:10265000020FF4D1236813F0080F29D0A369ABB19E
:102660000122464B1A60FFF711FF054605E0FFF710
:102670000DFF401B022800F20B813E4B5B6A13F0FA
:10268000020FF4D00120FFF707FF11E000223B4BBF
:102690001A60FFF7FBFE054605E0FFF7F7FE401B5B
:1026A000022800F2F780334B5B6A13F0020FF4D17B
:1026B000236813F0040F00F089802E4BDB6913F0C0
:1026C000805F0BD12B4BDA6942F08052DA61DB6913
:1026D00003F080530193019B012500E00025284B66
:1026E0001B6813F4807F13D1254A136843F4807369
:1026F0001360FFF7CBFE064605E0FFF7C7FE801B21
:10270000642800F2C9801E4B1B6813F4807FF4D04C
:10271000E368012B05D1174A136A43F001031362E2
:1027200022E063B903F1804303F504331A6A22F00F
:1027300001021A621A6A22F004021A6214E0052BDE
:1027400009D10C4B1A6A42F004021A621A6A42F06A
:1027500001021A6208E0074B1A6A22F001021A62AB
:102760001A6A22F004021A62E368CBB1FFF78EFE08
:1027700006460FE000100240000042428004424240
:1027800000700040FFF782FE801B41F288339842C0
:1027900000F28480494B1B6A13F0020FF2D00FE065
:1027A000FFF774FE064606E0FFF770FE801B41F25D
:1027B0008833984274D8414B1B6A13F0020FF3D14F
:1027C00025B13E4AD36923F08053D361E369002BDE
:1027D00068D03A4A526802F00C02082A64D0022BF0
:1027E00037D10022364B1A60FFF750FE054604E051
:1027F000FFF74CFE401B022858D8304B1B6813F0E3
:10280000007FF5D1236AB3F5803F06D12B494B6891
:1028100023F40032A36813434B602848436823F431
:102820007411236A626A13430B4343600122244BF1
:102830001A60FFF72BFE044604E0FFF727FE001B9B
:10284000022835D81D4B1B6813F0007FF5D00020FF
:1028500031E000221A4B1A60FFF718FE044604E02C
:10286000FFF714FE001B022824D8144B1B6813F03A
:10287000007FF5D100201EE001201CE003201AE0BB
:10288000032018E0012016E0032014E0032012E0EA
:10289000032010E003200EE003200CE003200AE0F8
:1028A000032008E0002006E0012004E0032002E00D
:1028B000032000E0032002B070BD00BF0010024002
:1028C0006000424230B486B0164D02AC2868696898
:1028D000AA68EB680FC42B8AADF80430124B5B6812
:1028E00003F00C02082A19D1C3F3834206A90A4453
:1028F00012F8100C13F4803F0CD00B4B5B68C3F341
:1029000040430B4413F8142C084B03FB00F0B0FBBE
:10291000F2F004E0064B03FB00F000E0034806B0D1
:1029200030BC7047384100080010024000127A00A5
:1029300000093D0070B55C4B1B6803F007038B4238
:102940000BD2594A136823F007030B431360136833
:1029500003F00703994240F09780036813F0020FD9
:1029600006D0524C636823F0F0028368134363601F
:102970000D460446036813F0010F4DD04268012A4A
:1029800005D14A4B1B6813F4003F0DD17EE0022AAB
:1029900005D1464B1B6813F0007F05D178E0434B0F
:1029A0001B6813F0020F75D040494B6823F00303F6
:1029B00013434B60FFF76AFD06466368012B0ED197
:1029C00006E0FFF763FD801B41F28833984263D82D
:1029D000364B5B6803F00C03042BF2D11CE0022B96
:1029E00015D106E0FFF752FD801B41F28833984273
:1029F00054D82E4B5B6803F00C03082BF2D10BE08C
:102A0000FFF744FD801B41F28833984248D8274B9A
:102A10005B6813F00C0FF3D1234B1B6803F0070323
:102A20009D420AD2204A136823F007032B43136008
:102A3000136803F007039D4234D1236813F0040F99
:102A400006D01A494B6823F4E062E36813434B60F5
:102A5000236813F0080F07D0144A536823F4605317
:102A6000216943EAC1035360FFF72CFF0F4B5B68FA
:102A7000C3F303130E4AD35CD8400E4B18600020FA
:102A8000FEF76EFF002070BD012070BD012070BDFB
:102A9000012070BD012070BD032070BD032070BDFA
:102AA000032070BD012070BD0020024000100240D4
:102AB0007842000868000020014B1868704700BF8A
:102AC0006800002008B5FFF7F7FF044B5B68C3F30D
:102AD0000223034AD35CD84008BD00BF0010024067
:102AE0008842000808B5FFF7E7FF044B5B68C3F3B3
:102AF000C223034AD35CD84008BD00BF0010024087
:102B0000884200080F2303600B4B5A6802F003024F
:102B100042605A6802F0F00282605A6802F4E06291
:102B2000C2605B68DB0803F4E0630361034B1B686E
:102B300003F007030B6070470010024000200240C2
:102B4000F0B583B000263446DFE00122A2400B68D6
:102B500013409A4240F0D8804D68122D2DD00BD8EA
:102B6000022D27D003D85DB3012D1ED035E0032DF3
:102B700030D0112D1BD030E0664FBD4220D008D898
:102B8000A7F58017BD421BD007F58037BD4224D181
:102B900016E0614FBD4213D007F58037BD420FD01C
:102BA000A7F58017BD4218D10AE0CE6815E0CE68BF
:102BB000043612E0CE6808360FE0CE680C360CE022
:102BC0008D684DB1012D02D10261082605E04261F8
:102BD000082602E0002600E00426FF2B01D88646E6
:102BE00001E000F1040EFF2B01D8A20002E0A4F1E5
:102BF00008029200DEF800700F25954027EA0505CF
:102C000006FA02F22A43CEF800204A6812F0805FEA
:102C10007AD0424A956945F001059561926902F0C2
:102C200001020192019AA708BD1C3D4A52F825E015
:102C300004F0030292000F2595402EEA050E394D4F
:102C4000A84215D005F58065A84213D005F580652A
:102C5000A84211D005F58065A8420FD005F5806522
:102C6000A8420DD005F58065A8420BD105250AE0E4
:102C7000002508E0012506E0022504E0032502E026
:102C8000042500E0062505FA02F24EEA02020237A8
:102C9000234D45F827204A6812F4803F05D005F5FA
:102CA00080652A681A432A6004E01F4D2A6822EAD8
:102CB00003022A604A6812F4003F04D01A4D6A6881
:102CC0001A436A6004E0184D6A6822EA03026A60E7
:102CD0004A6812F4801F04D0134DAA681A43AA60F0
:102CE00004E0114DAA6822EA0302AA604A6812F4BD
:102CF000001F04D00C4DEA681343EB6004E00A4D5A
:102D0000EA6822EA0303EB6001340F2C7FF61DAF63
:102D100003B0F0BD0000211000003110001002408F
:102D20000000014000080140000401400AB10161B7
:102D3000704709040161704770B4C56B066C0124CB
:102D4000B4406C60046863604368102B04D103686E
:102D50009A600368D96003E0036899600368DA60E9
:102D600070BC704700283ED010B403460168204A6A
:102D700091420AD81F4A0A441F49A1FB02121209B4
:102D8000920002641D4AC26309E01D4A0A441A49BE
:102D9000A1FB02121209920002641A4AC2630222C3
:102DA00083F821201C68226822F47F5121F0300131
:102DB00058689A681043DA6810431A6910435A69D0
:102DC00010439A691043DA6902430A4322600020E3
:102DD0009862D862186358639863012283F82120AF
:102DE00083F8200001E00120704710BC704700BF4D
:102DF00007040240F8FFFDBFCDCCCCCC0000024060
:102E0000F8FBFDBF0004024038B590F82040012CCB
:102E100032D0012480F8204090F82140012C26D1A6
:102E20000446022084F821000020A0632568286859
:102E300020F0010028602046FFF77EFFE36A2BB1F7
:102E40002268136843F00E03136009E022681368D8
:102E500023F0040313602268136843F00A0313602D
:102E60002268136843F001031360002038BD00237B
:102E700080F82030022038BD022038BD03460168AA
:102E80000A6822F00E020A6001680A6822F0010254
:102E90000A60C06B1A6C012101FA02F2426083F8E9
:102EA0002110002083F82000704700BF08B590F87B
:102EB0002130022B03D004238363012008BD026864
:102EC000136823F00E0313600268136823F00103F4
:102ED000136003684B4A934243D9783A934221D016
:102EE0001432934220D0143293421FD014329342B2
:102EF0001FD0143293421FD0143293421FD0143289
:102F000093421FD002F5627293421ED01432934254
:102F10001DD0143293421CD0143293421CD14FF472
:102F200080521BE0012219E0102217E04FF480725A
:102F300014E04FF4805211E04FF480320EE04FF471
:102F400080120BE04FF0807208E0012206E01022B0
:102F500004E04FF4807201E04FF480322A4B5A6053
:102F600042E02A4A934221D01432934220D01432B4
:102F700093421FD0143293421FD0143293421FD079
:102F8000143293421FD0143293421FD002F5627262
:102F900093421ED0143293421DD0143293421CD05F
:102FA000143293421CD14FF480521BE0012219E0ED
:102FB000102217E04FF4807214E04FF4805211E0B9
:102FC0004FF480320EE04FF480120BE04FF080722D
:102FD00008E0012206E0102204E04FF4807201E0D4
:102FE0004FF480320A4B5A60012380F821300023CD
:102FF00080F82030436B13B19847002008BD0020B3
:1030000008BD00BF800002400004024008000240EA
:103010000000024038B5C36B1A6804682568016C6B
:1030200004238B401A4200F09D8015F0040F00F03D
:103030009980236813F0200F03D1236823F0040341
:1030400023600368A84A934243D9783A934221D037
:103050001432934220D0143293421FD01432934240
:103060001FD0143293421FD0143293421FD0143217
:1030700093421FD002F5627293421ED014329342E3
:103080001DD0143293421CD0143293421CD14FF401
:1030900080421BE0042219E0402217E04FF48062D6
:1030A00014E04FF4804211E04FF480220EE04FF420
:1030B00080020BE04FF0806208E0042206E040222C
:1030C00004E04FF4806201E04FF48022874B5A60A5
:1030D00042E0874A934221D01432934220D01432E6
:1030E00093421FD0143293421FD0143293421FD008
:1030F000143293421FD0143293421FD002F56272F1
:1031000093421ED0143293421DD0143293421CD0ED
:10311000143293421CD14FF480421BE0042219E088
:10312000402217E04FF4806214E04FF4804211E037
:103130004FF480220EE04FF480020BE04FF08062EB
:1031400008E0042206E0402204E04FF4806201E03F
:103150004FF48022674B5A60C36A002B00F0C38093
:10316000984738BD02238B401A4200F0A18015F029
:10317000020F00F09D80236813F0200F06D1236812
:1031800023F00A032360012380F821300368564AA4
:10319000934243D9783A934221D01432934220D0BB
:1031A000143293421FD0143293421FD014329342F0
:1031B0001FD0143293421FD0143293421FD002F515
:1031C000627293421ED0143293421DD01432934245
:1031D0001CD0143293421CD14FF400521BE0022247
:1031E00019E0202217E04FF4007214E04FF400526F
:1031F00011E04FF400320EE04FF400120BE04FF0FC
:10320000007208E0022206E0202204E04FF400727F
:1032100001E04FF40032354B5A6042E0344A9342A9
:1032200021D01432934220D0143293421FD0143252
:1032300093421FD0143293421FD0143293421FD0B6
:10324000143293421FD002F5627293421ED01432A0
:1032500093421DD0143293421CD0143293421CD19D
:103260004FF400521BE0022219E0202217E04FF435
:10327000007214E04FF4005211E04FF400320EE0FF
:103280004FF400120BE04FF0007208E0022206E05B
:10329000202204E04FF4007201E04FF40032154B9D
:1032A0005A60002380F82030836AE3B1984738BD24
:1032B000082303FA01F10A4215D015F0080F12D0C5
:1032C000236823F00E032360C16B026C012303FA11
:1032D00002F24A60836380F82130002380F82030B6
:1032E000036B03B1984738BD8000024000040240E0
:1032F0000800024000000240074AD36823F4E0635C
:103300001B041B0C000200F4E060184340F0BF6097
:1033100040F40030D060704700ED00E030B4164B50
:10332000DB68C3F30223C3F10704042C28BF042481
:103330001D1D062D01D9DD1E00E00025012303FA25
:1033400004F4013C2140A940AB40013B1A400A4330
:10335000002806DA00F00F001201D2B2074B1A540F
:1033600007E01201D2B200F1604000F5614080F840
:10337000002330BC704700BF00ED00E014ED00E01A
:10338000420900F01F00012303FA00F0014B43F84B
:103390002200704700E100E00138B0F1807F0AD2DE
:1033A000064B5860F021064A82F8231000209860EE
:1033B00007221A6070470120704700BF10E000E04C
:1033C00000ED00E0042805D1054A136843F004032A
:1033D00013607047024A136823F0040313607047B8
:1033E00010E000E00F4B1A6842F001021A605968C1
:1033F0000D4A0A405A601A6822F0847222F4803220
:103400001A601A6822F480221A605A6822F4FE02B6
:103410005A604FF41F029A604FF00062034B9A60AB
:10342000704700BF001002400000FFF800ED00E010
:10343000124A12F0070F07D0D11D21F00701C1F584
:10344000406313440A4601E04FF440630C480260B5
:10345000002141601344083B23F00703094803603F
:1034600059601960991A51601360074B1960074B36
:1034700019604FF00042064B1A607047B8000020F8
:10348000B0000020AC000020BC0C0020A8000020F0
:10349000B80C0020124B00E013461A688242FBD39E
:1034A00010B45C681919884203D1416821445960FD
:1034B0001846446801198A420CD10A4909688A42AF
:1034C00006D05268224442601A681268026002E024
:1034D000016000E00260984200D0186010BC7047A4
:1034E000B0000020AC00002070B5044600F0D2FB14
:1034F000394B1B680BB9FFF79BFF384B1B681C420D
:1035000053D194B1083414F0070F0ED024F00704FF
:10351000083404F0070343B14FF0500383F31188DC
:10352000BFF36F8FBFF34F8FFEE7002C3FD02C4BC4
:103530001B689C423DD82B4B1D6801E02B4615466D
:103540006A68944202D92A68002AF7D1224A12688E
:10355000954230D01E6808362A681A606B681B1BBB
:10356000102B10D9281910F0070F08D04FF0500376
:1035700083F31188BFF36F8FBFF34F8FFEE7436074
:103580006C60FFF787FF6A6815490B689B1A0B6030
:10359000154909688B4201D213490B600F4B1B6818
:1035A0001A436A6000232B6006E0002604E0002630
:1035B00002E0002600E0002600F006FC16F0070FEF
:1035C00008D04FF0500383F31188BFF36F8FBFF320
:1035D0004F8FFEE7304670BDAC000020B80C0020D5
:1035E000A8000020B0000020BC0C0020A0B338B51B
:1035F0000346A0F1080550F8042C1849096812EA9E
:10360000010408D14FF0500383F31188BFF36F8F8B
:10361000BFF34F8FFEE750F8080C40B14FF0500356
:1036200083F31188BFF36F8FBFF34F8FFEE794B121
:1036300088B91C4622EA010243F8042C00F02AFB58
:1036400054F8043C064A11680B4413602846FFF7FF
:1036500021FF00F0B9FB38BD704700BFB80C002057
:10366000A80000200B4B1B68B3F1FF3F08D04FF0C0
:10367000500383F31188BFF36F8FBFF34F8FFEE7C3
:103680004FF0500383F31188BFF36F8FBFF34F8F59
:10369000FEE700BF6C00002006480068006880F369
:1036A000088862B661B6BFF34F8FBFF36F8F00DF3C
:1036B00000BF000008ED00E04FF0807340F8043CCC
:1036C00021F0010140F8081C034B40F80C3C40F885
:1036D000202C4038704700BF65360008000000000D
:1036E000074B19680868B0E8F00F80F30988BFF34A
:1036F0006F8F4FF0000080F311884EF00D0E704771
:10370000880D00204FF0500383F31188BFF36F8FB3
:10371000BFF34F8F0A4A136801331360012B0DD199
:10372000084B1B6813F0FF0F08D04FF0500383F3D2
:103730001188BFF36F8FBFF34F8FFEE7704700BF55
:103740006C00002004ED00E0094B1B6843B94FF00A
:10375000500383F31188BFF36F8FBFF34F8FFEE7E2
:10376000013B034A13600BB983F31188704700BF14
:103770006C000020000000000000000000000000BD
:10378000EFF30980BFF36F8F0D4B1A6820E9F00F3C
:1037900010602DE908404FF0500080F3118800F0D0
:1037A000F5FB4FF0000080F31188BDE80840196870
:1037B0000868B0E8F00F80F30988BFF36F8F704797
:1037C000880D002008B54FF0500383F31188BFF334
:1037D0006F8FBFF34F8F00F065FA18B14FF0805232
:1037E000024B1A60002383F3118808BD04ED00E04A
:1037F000064B1B68064AA2FB03239B09013B054AB3
:1038000013600722044B1A60704700BF6800002055
:10381000D34D621014E000E010E000E000B583B08A
:103820001F4B1A78D2B20192FF221A701B78DBB2BA
:103830008DF803309DF8033003F05003194A1370DC
:103840000722194B1A6009E0174A1368013B1360FD
:103850009DF803305B00DBB28DF803309DF8033038
:1038600013F0800FF0D1104A13681B0203F4E063D9
:103870001360019BDBB20A4A13700C4B1A6842F4C6
:1038800070021A601A6842F070421A60FFF7B0FFC7
:103890000022074B1A60FFF7FFFEFFF7E3FE00BFB1
:1038A00000E400E0C00C0020C40C002020ED00E08B
:1038B0006C00002000F1080343604FF0FF3282608B
:1038C000C360036100230360704700BF00230361EE
:1038D000704700BF43684B609A688A609A6851607D
:1038E00099600861036801330360704730B40D6864
:1038F000B5F1FF3F01D1026907E000F1080200E0E5
:103900001A4653681C68A542FAD253684B60996006
:103910008A605160086103680133036030BC7047FE
:1039200003694268816891608268416851605A68A1
:10393000904201D182685A60002202611868013801
:10394000186070470A4B1B681B680BB9012300E025
:10395000002323B14FF0FF32064B1A607047044B2F
:103960001B68DB68DB685A68024B1A60704700BF4F
:10397000CC0C0020A80D002010B50446006BFFF70A
:1039800035FE2046FFF732FE10BD00BF2DE9F0479F
:1039900080469946089D099F0A9C236B02F180424C
:1039A000013A03EB820626F00706002306E0C85C16
:1039B000E21882F83400CA5C12B101330F2BF6D939
:1039C000002384F84330062D00D90625E56265649E
:1039D0004FF0000AC4F848A0201DFFF777FF04F15C
:1039E0001800FFF773FF2461C5F10705A561646244
:1039F000C4F84CA084F850A04A4641463046FFF730
:103A00005BFE206007B13C60BDE8F08738B500245C
:103A100007E004EB840293000E481844FFF74AFFC6
:103A20000134062CF5D90C4D2846FFF743FF0B4C0B
:103A30002046FFF73FFF0A48FFF73CFF0948FFF722
:103A400039FF0948FFF736FF084B1D60084B1C6023
:103A500038BD00BFF00C0020B00D0020C40D0020C8
:103A60008C0D0020D40C0020D80D0020CC0C0020A0
:103A7000E80C002010B50446FFF744FE204A136806
:103A8000013313601F4B1B683BB91E4B1C6013684E
:103A9000012B0DD1FFF7BAFF0AE01B4B1B683BB9A6
:103AA000184B1B68DA6AE36A9A4201D8154B1C600E
:103AB000164A136801331360E36A012202FA03F124
:103AC000134802680A43026003EB83039A00211D36
:103AD00010481044FFF7FEFEFFF736FE0A4B1B6846
:103AE0006BB1084B1B68DA6AE36A9A4207D24FF05F
:103AF0008052094B1A60BFF34F8FBFF36F8F10BD19
:103B0000840D0020880D0020D00C0020AC0D00207A
:103B1000EC0D0020F00C002004ED00E070B5044630
:103B20000E461D4B1D681D4B18680430FFF7F8FE4C
:103B300050B91A4B1B68DA6A012303FA02F21849DA
:103B40000B6823EA02030B60B4F1FF3F07D136B1E3
:103B5000124B196804311348FFF7BCFE70BD2C44AA
:103B60000E4B1B685C60A54207D90F4B18680B4BC6
:103B700019680431FFF7BAFE70BD0C4B1868074B8B
:103B800019680431FFF7B2FE094B1B689C4201D251
:103B9000074B1C6070BD00BFA40D0020880D0020E5
:103BA000EC0D0020D80D0020E80C0020CC0C0020EB
:103BB000A80D00202DE9F04385B006460F461546B6
:103BC00098469000FFF790FC60B181465420FFF7C3
:103BD0008BFC044610B1C0F8309004E04846FFF773
:103BE00005FD00E000248CB10023039302940D9B9B
:103BF00001930C9B009343462A4639463046FFF713
:103C0000C5FE2046FFF736FF012001E04FF0FF30F0
:103C100005B0BDE8F08300BF00B583B0174B01933A
:103C200000230093802216491648FFF7C3FF01289E
:103C300014D14FF0500383F31188BFF36F8FBFF39C
:103C40004F8F4FF0FF32104B1A6001220F4B1A605A
:103C500000220F4B1A60FFF7E1FD0BE0B0F1FF3FD0
:103C600008D14FF0500383F31188BFF36F8FBFF378
:103C70004F8FFEE703B05DF804FB00BFA00D0020EE
:103C800090420008653F0008A80D0020D00C0020DD
:103C9000A40D0020024A136801331360704700BF6F
:103CA0007C0D0020F8B53D4B1B68002B69D13C4BC7
:103CB0001D6801351D60C5B93A4B1B681B6843B1CF
:103CC0004FF0500383F31188BFF36F8FBFF34F8F13
:103CD000FEE7344A1168344B186810601960334AA3
:103CE000136801331360FFF72DFE314B1B689D42B3
:103CF00003D200243AE0012400E00024294B1B6891
:103D00001B680BB9012300E0002323B14FF0FF3201
:103D1000274B1A602AE0234B1B68DB68DE68736858
:103D20009D4202D2224A136020E0371D3846FFF739
:103D3000F7FDB36A1BB106F11800FFF7F1FDF36A56
:103D4000012202FA03F11B4802680A43026003EBF6
:103D500083039A00394618481044FFF7BBFDF26A06
:103D6000164B1B68DB6A9A42C5D2C7E7134B1B6828
:103D7000DB6A03EB83039A000F4B9B58012B06D899
:103D800006E00F4A136801331360002400E00124A9
:103D90000C4B1B6803B101242046F8BD7C0D0020AC
:103DA000A40D0020CC0C0020E80C0020C80C002042
:103DB000A80D0020EC0D0020F00C0020880D002044
:103DC000EC0C0020F00D002038B5344B1B6843B9D3
:103DD0004FF0500383F31188BFF36F8FBFF34F8F02
:103DE000FEE7FFF78FFC2D4B1A68013A1A601B683B
:103DF000002B4CD12A4B1B6833BB00244AE0294BD3
:103E0000DB68DC6804F11800FFF78AFD251D2846F1
:103E1000FFF786FDE36A012202FA03F122480268F5
:103E20000A43026003EB83039A0029461F481044AB
:103E3000FFF750FDE26A1E4B1B68DB6A9A4204D30F
:103E400001221C4B1A6000E00024164B1B68002B5B
:103E5000D5D10CB1FFF776FD174B1C6854B1FFF7B5
:103E600021FF10B10122134B1A60013CF7D100224F
:103E7000114B1A600F4B1B685BB14FF080520F4B18
:103E80001A60BFF34F8FBFF36F8F012402E000244D
:103E900000E00024FFF758FC204638BD7C0D0020D0
:103EA000840D00208C0D0020EC0D0020F00C002073
:103EB000880D0020F00D0020EC0C002004ED00E047
:103EC00010B5A8B10446104B1B6843B14FF0500326
:103ED00083F31188BFF36F8FBFF34F8FFEE7FFF7B8
:103EE000D9FE00212046FFF719FEFFF76DFF00E025
:103EF000002038B94FF08052044B1A60BFF34F8F47
:103F0000BFF36F8F10BD00BF7C0D002004ED00E0FB
:103F100010B51BE0FFF7BEFE0F4B1C68FFF754FF08
:103F2000A4B1FFF7EFFB0C4BDB68DC68201DFFF74B
:103F3000F7FC0A4A1368013B1360094A1368013B06
:103F40001360FFF701FC2046FFF716FD044B1B68CA
:103F5000002BDFD110BD00BFD40C0020840D002049
:103F6000800D002008B5FFF7D3FF064B1B68012B1F
:103F7000F9D94FF08052044B1A60BFF34F8FBFF353
:103F80006F8FF0E7F00C002004ED00E01F4B1B6882
:103F90001BB101221E4B1A60704700221C4B1A6095
:103FA0001C4B1B68B3FA83F3DBB2C3F11F0303EBB3
:103FB00083018A0018498A5842B94FF0500383F3AD
:103FC0001188BFF36F8FBFF34F8FFEE730B4124DF0
:103FD0009900CA1890002844426854684460194403
:103FE0008A0008322A44944205D1606803EB8301B9
:103FF0008A002A44506003EB83039A00064B1A445C
:104000005368DA68054B1A6030BC70477C0D00209D
:10401000F00D0020EC0D0020F00C0020880D002099
:10402000054B1B6823B1054B1B681BB90220704769
:104030000120704700207047D00C00207C0D00202C
:10404000842801D0033070470020704708B5FFF77F
:10405000E3FD002008BD00BFF0B585B00F46446801
:1040600005680669B0F90800FFF7EAFF03AB0193A2
:1040700000903B46B2B229462046FFF79BFD01283F
:1040800001D1039800E0002005B0F0BD08B508B9E3
:104090000120FFE7FFF714FF002008BD08B5FFF778
:1040A000BFFF012801D0FFF78DFB08BD002103E011
:1040B0000B4B5B58435004310A480B4B42189A4251
:1040C000F6D30A4A02E0002342F8043B084B9A4226
:1040D000F9D3FFF787F9FCF7DDF8FDF75DFA7047D4
:1040E000E042000800000020700000207000002066
:1040F000A0110020FEE70000F8B500BFF8BC08BC26
:104100009E467047F8B500BFF8BC08BC9E46704795
:1041100058420008ED1300080000000000000000F5
:1041200000010000504200089D100008000000003F
:104130000000000000010000020304050607080952
:104140000A0B0C0D0E0F1010010200000D0A46752F
:104150006E635F5461736B3120455350383236368D
:1041600020436C69656E740D0A00000041542B43B6
:10417000574D4F44453D310D0A00000041542B522C
:1041800053540D0A0000000041542B4349504D5533
:10419000583D300D0A00000041542B43574A41500E
:1041A0003D225059595F38323636222C2231323373
:1041B0003435363738220D0A0000000041542B43B5
:1041C000495053544152543D22544350222C2231E1
:1041D00039322E3136382E342E31222C3333330DF2
:1041E0000A00000041542B43495053454E443D378B
:1041F0000D0A000031324D594441540D0A000000AF
:104200000D0A46494E49534845440D0A0000000036
:1042100039384D594441540D0A000000256300000F
:1042200041542B43495053454E443D390D0A00003B
:104230005372632F6D61696E2E630000444D410D12
:104240000A000000444D415F75617274310D0A002F
:104250005461736B310000005461736B30000000D7
:104260005372632F73746D3332663178785F68618F
:104270006C5F6D73702E6300000000000000000092
:1042800001020304060708090000000001020304FC
:1042900049444C450000000043000000232D302B12
:1042A00020000000686C4C006566674546470000CA
:1042B000303132333435363738394142434445465C
:1042C000000000003031323334353637383961621E
:0842D000636465660000000054
:0442D8005D0200087B
:0442DC00350200089F
:1042E00004000020000000000000000000000000AA
:1042F00000000000000000000000000000000000BE
:1043000000000000984200080000000000000000CB
:10431000000000000000000000000000000000009D
:10432000000000000000000000000000000000008D
:10433000000000000000000000000000000000007D
:10434000000000000100000000A24A04AAAAAAAAD4
:04000005080040AD02
:00000001FF
