:020000040800F2
:1000000000000120BD3A00089D0C0008A10C00086A
:10001000A50C0008A90C0008AD0C000800000000A9
:10002000000000000000000000000000F1300008A7
:10003000B10C00080000000091310008B50C000868
:10004000053B0008053B0008053B0008053B000890
:10005000053B0008053B0008053B0008053B000880
:10006000053B0008053B0008053B0008053B000870
:10007000053B0008053B0008053B0008053B000860
:10008000053B0008053B0008053B0008053B000850
:10009000BD0C0008053B0008053B0008053B0008B7
:1000A000053B0008053B0008053B0008053B000830
:1000B000053B0008053B0008E50C0008053B00086F
:1000C000053B0008053B0008053B0008053B000810
:1000D000053B0008053B0008F50C0008053B00083F
:1000E000053B0008053B0008053B0008053B0008F0
:1000F000053B0008053B0008053B0008053B0008E0
:10010000053B0008053B0008053B0008053B0008CF
:10011000053B0008053B0008053B0008053B0008BF
:10012000053B0008053B0008053B0008053B0008AF
:1001300000000000000000000000000000000000BF
:1001400000000000000000000000000000000000AF
:10015000000000000000000000000000000000009F
:10016000000000000000000000000000000000008F
:10017000000000000000000000000000000000007F
:10018000000000000000000000000000000000006F
:10019000000000000000000000000000000000005F
:1001A000000000000000000000000000000000004F
:1001B000000000000000000000000000000000003F
:1001C000000000000000000000000000000000002F
:1001D000000000000000000000000000000000001F
:0401E0005FF8E0F1F3
:1001F00010B5054C237833B9044B13B10448AFF361
:1002000000800123237010BD70000020000000005A
:10021000784D0008084B10B51BB108490848AFF3EA
:1002200000800848036803B910BD074B002BFBD0C2
:10023000BDE81040184700BF000000007400002017
:10024000784D000870000020000000002DE9F0410A
:1002500088B0214B9A6942F010029A619A6902F0C3
:1002600010020192019A9A6942F004029A619A6915
:1002700002F004020292029A9A6942F008029A611C
:100280009B6903F008030393039BDFF8548000226B
:100290003821404602F080FC104C00224FF480418F
:1002A000204602F079FC38230493012705970026A5
:1002B00006960225079504A9404602F077FB4FF405
:1002C0008043049305970696079504A9204602F0FB
:1002D0006DFB08B0BDE8F08100100240000C014049
:1002E0000010014008B5194D194B6B630A230E220B
:1002F0001849194801F076FE184900244C618C61B8
:100300000123CB610C604C608C60CC600C610B6293
:10031000284600F057FE2146284600F079FF104C91
:100320000421204601F086FC236840F2E7329A63FC
:10033000012003F0B3FB0B4B1B68002BF8D1084BDB
:100340001B6840F2E7329A63F2E700BF280E0020F4
:100350004C0F0020CC4D0008F00E0020FC0D0020BA
:100360006C0E0020240E0020284A936943F00103FC
:100370009361A2F58832536843F000735360244BB5
:100380005A6842F020025A605A685B6813F0200FE6
:100390003BD0204AD36843F08073D3601E4B0822C1
:1003A0001A610221C3F8F0104FF48072C3F80423DD
:1003B0001A4AA3F57C331A604FF06043A2F16952E8
:1003C000A2F5A212A2F6AC32C3F8B02F1448C3F8BB
:1003D000800E4FF0FF30C3F8000E03F58223C3F800
:1003E000B02F1A6842F480621A604FF419621A60E2
:1003F000C3F800124FF080725A629A621822DA62D1
:1004000044F26F029A606F221A6270470010024035
:10041000002004E0F0ED00E0000004E0011A01001B
:100420000F000100084B094A1A6208225A62222270
:100430009A62074A1A630221596303229A630548A4
:10044000186459649A647047001000E0000C014081
:100450009C0000209400002010B514464FF6FF7356
:1004600092B2024801F0BEFD204610BDF00E002001
:1004700038B50546AA221D4B1A60052809DC17E08D
:100480003234A4B21A4B1B689C63052003F006FBB0
:1004900000E00024B4F57A7FF2D307E0323CA4B246
:1004A000134B1B689C63052003F0F8FAC82CF5D8A1
:1004B000033D022D09D938BD3234A4B20C4B1B6860
:1004C0009C63052003F0EAFA00E00024B4F52F7FD6
:1004D000F2D307E0323CA4B2054B1B689C630520B5
:1004E00003F0DCFAC82CF5D838BD00BF940000201A
:1004F0006C0E002038B50546AB221D4B1A601D4C12
:1005000000220821204602F047FB0122102120464C
:1005100002F042FB042D09DD18E03234A4B2164B80
:100520001B689C63052003F0B9FA00E00024B4F5D1
:10053000167FF2D307E0323CA4B20F4B1B689C63DA
:10054000052003F0ABFAB4F5C87FF4D8062D09DD19
:1005500038BD3234A4B2084B1B689C63052003F0FD
:100560009DFA00E00024B4F52F7FF2D338BD00BF20
:1005700094000020001001406C0E002038B50546A4
:10058000AC221D4B1A60C82809DC17E03234A4B233
:100590001A4B1B689C63052003F080FA00E00024DE
:1005A000B4F5617FF2D307E0323CA4B2134B1B6871
:1005B0009C63052003F072FAC82CF5D8653D632DC5
:1005C00009D938BD3234A4B20C4B1B689C6305209A
:1005D00003F064FA00E00024B4F52F7FF2D307E0C3
:1005E000323CA4B2054B1B689C63052003F056FA0D
:1005F000C82CF5D838BD00BF940000206C0E002038
:1006000038B50446AD22284B1A60C7280FDC274DA9
:1006100001220821284602F0BFFA012210212846B3
:1006200002F0BAFA01222021284602F0B5FAA4F11C
:10063000C803632B0FD81D4D01220821284602F064
:10064000ABFA01221021284602F0A6FA002220214E
:10065000284602F0A1FAA4F59673632B0FD8134D28
:1006600001220821284602F097FA0022102128468C
:1006700002F092FA00222021284602F08DFAB4F509
:10068000C87F0FDB094C00220821204602F084FAC3
:1006900000221021204602F07FFA0022202120466D
:1006A00002F07AFA38BD00BF94000020001001402B
:1006B00070B505460E46AE22134B1A601E280FDD9C
:1006C0001D2909DD0CE03234A4B2104B1B689C6379
:1006D000052003F0E3F900E00024B4F5167FF2D31F
:1006E0002D2D0FDD132E09DD70BD3234A4B2074B62
:1006F0001B689C63052003F0D1F900E00024B4F5E9
:10070000487FF2D370BD00BF940000206C0E002023
:1007100030B58BB00022AD4B1A600A230622AC49DB
:10072000AC4801F05FFCA94B1B68012B40F04881ED
:100730000C22A94B1A60A94C01224FF4804120469B
:1007400002F02AFA012003F0A9F900224FF48041B7
:10075000204602F021FA00229C4B1A600A2306224E
:100760009F499C4801F03EFC9E4B9B8A40F6090243
:10077000934203D040F20122934219D1994D9A4CF1
:100780002A7D214608A803F011FA6A7D214606A8B1
:1007900003F00CFA8F4C0A23082208A9204601F026
:1007A00021FC0A23082206A9204601F01BFC07E1D0
:1007B0000A230F228D49874801F014FC00240DE024
:1007C000884B23441A7D8A4908A803F0EFF90A23CD
:1007D000082208A97F4801F005FC0134072CEFDD51
:1007E000804B9B7D542B14D10A23062281497948E2
:1007F00001F0F8FB002307E07A4A1A44117D0AAAA7
:100800001A4402F8281C0133072BF5DD08227A4B25
:100810001A60744B9B7D4C2B1AD1774B1B68082BAD
:1008200016D10A23062275496A4801F0DBFB002332
:1008300009E003F108026B491944097D0AA8024442
:1008400002F8281C0133072BF3DD10226C4B1A60D1
:10085000644B5B7D522B40F0B380694B1B68102BBF
:1008600040F0AE800A23062266495A4801F0BAFBDE
:10087000002309E003F110025A491944097D0AA82E
:10088000024402F8281C0133072BF3DD18225E4BCB
:100890001A609DF80030303B03EB830359009DF84C
:1008A0000130303B1944594803F068F99DF8054080
:1008B000482C0CD19DF80330303B03EB83035900E7
:1008C0009DF80430303B1944514803F057F9492C46
:1008D00010D19DF80330303B03EB83035C009DF89F
:1008E0000430303B1C442046FFF7C2FD21464948F6
:1008F00003F044F99DF80630303B9DF80720303A6C
:10090000642404FB02F24FF47A7101FB03229DF888
:100910000830303B03EB830359000A449DF809304B
:10092000303BD5182846FFF76BFE29463A4803F0BE
:1009300025F99DF80B30303B03EB83035D009DF8F8
:100940000C30303B1D442846FFF7D4FD2946334880
:1009500003F014F99DF80E20303A9DF80F30303B2B
:1009600003EB8303590004FB02149DF81030303B65
:100970001C442046FFF702FE2146294803F0FEF8FA
:100980009DF81230303B03EB83035C009DF813307D
:10099000303B1C442146234803F0F0F89DF8153005
:1009A000303B03EB83035D009DF81630303B1D4464
:1009B00029461D4803F0E2F829462046FFF778FE55
:1009C00000211A4800F024FCADE600BF240E0020F0
:1009D000DC4D0008F00E00209C000020000C0140BF
:1009E000E44D00084C0F0020844E0008EC4D000838
:1009F000FC4D0008004E0008A0000020084E000832
:100A000098000020104E00088C000020184E0008AE
:100A10002C4E0008384E0008444E0008504E000886
:100A2000604E0008704E00087C4E0008280E002022
:100A300008B50268084B9A420CD101F051FC074AF4
:100A4000136801331360322B04D1642B02D10022CE
:100A5000024B1A6008BD00BF000800409000002053
:100A6000FEE700BF08B50E480E4B0360122343603B
:100A700000238360C3604FF4C02202614FF4E002A0
:100A800042618361C361036243628362C36200F0B7
:100A900019FB20B14FF4CD710348FFF7E1FF08BD0A
:100AA000280E002000640040884E000808B50B485E
:100AB0000B4B03604FF4E133436000238360C3605A
:100AC00003610C2242618361C36101F059FA20B1D4
:100AD00040F2D3110348FFF7C3FF08BDB00E00205A
:100AE00000380140884E000808B50B480B4B0360E6
:100AF0004FF4E133436000238360C36003610C2241
:100B000042618361C36101F03BFA20B14FF4F3719C
:100B10000348FFF7A5FF08BDF00E00200044004089
:100B2000884E000800B58BB01C481D4B036047235E
:100B300043600023836040F2E732C2600361836157
:100B400000F0A8FF20B14FF4D7711648FFF788FFD7
:100B500000230893099308A9104801F08DF820B1EB
:100B600040F2B5110F48FFF77BFF6023019300238C
:100B7000029302220392059304220DEB020107481F
:100B800000F0DCFF20B14FF4DF710648FFF768FF8B
:100B9000024800F05DF90BB05DF804FB6C0E00201C
:100BA00000040040884E000800B591B00122069272
:100BB0004FF480330793002108910A9202220D928C
:100BC0000E934FF4E0130F9306A801F0B1FB20B190
:100BD00040F26B111448FFF743FF0F2301930221EA
:100BE0000291002303934FF480620492059301A8BD
:100BF00001F0D6FD20B140F279110B48FFF730FF2C
:100C000001F090FE094BA3FB0030800902F0CEF802
:100C1000042002F0E1F800220F214FF0FF3002F033
:100C200087F811B05DF804FB884E0008D34D6210C0
:100C300070B58AB001F042FBFFF7B6FFFFF706FB85
:100C4000FFF710FFFFF732FFFFF74EFFFFF76AFFD6
:100C5000FFF78AFBFFF7E6FB0D4C05AD26460FCEEE
:100C60000FC533682B60002105A802F0FDFE094B7B
:100C700018606D4614340FCC0FC523682B6000211B
:100C8000684602F0F1FE044B186002F0E7FEFEE752
:100C9000904D0008700F0020AC0E0020704700BF80
:100CA000FEE700BFFEE700BFFEE700BFFEE700BFB4
:100CB000704700BF08B502F0F9FE08BD08B5064848
:100CC00000F022FC054B5A6841F214339A4202D1DB
:100CD0000122034B1A6008BD280E00204C0F002093
:100CE000240E002008B5024800F0B2FD08BD00BF88
:100CF000740F002008B5024801F04AFA08BD00BF91
:100D0000F00E002000B583B0244B9A6942F0010236
:100D10009A619A6902F001020092009ADA6942F03F
:100D20008052DA61DB6903F080530193019B032059
:100D300001F0ECFF002211466FF00B0001F0F8FF0C
:100D4000002211466FF00A0001F0F2FF0022114666
:100D50006FF0090001F0ECFF002211466FF0040073
:100D600001F0E6FF002211466FF0030001F0E0FF02
:100D700000220F216FF0010001F0DAFF00220F21A5
:100D80004FF0FF3001F0D4FF054A536823F0E063D1
:100D900043F00073536003B05DF804FB00100240A1
:100DA0000000014002681D4B9A4235D130B587B032
:100DB00003F5D633DA6942F00072DA61DB6903F0D9
:100DC00000730193019B4FF48073029300240394FA
:100DD0000494134D02A9284601F0E8FD4FF4007376
:100DE0000293022303930323059302A9284601F0EB
:100DF000DDFD0C4A536823F4C04343F0E06343F441
:100E00008043536022460521142001F091FF1420F5
:100E100001F0C0FF07B030BD704700BF0064004064
:100E2000000C0140000001400268084B9A420CD1BE
:100E300082B003F50333DA6942F00202DA61DB695A
:100E400003F002030193019B02B0704700040040CD
:100E500002680C4B9A4214D100B585B080230093F0
:100E60000223019303936946074801F09FFD074A57
:100E7000536843F0E06343F44063536005B05DF8AA
:100E800004FB7047000400400010014000000140D6
:100E900030B587B00368284A934220D1274B9A691E
:100EA00042F480429A619B6903F480430093009B63
:100EB0004FF4007302930223039303230593204C02
:100EC00002A9204601F072FD4FF4806302930023D3
:100ED0000393049302A9204601F068FD29E0194A12
:100EE000934226D1154BDA6942F40032DA61DB69AC
:100EF00003F400330193019B042302930223039321
:100F0000032305930E4D02A9284601F04FFD082347
:100F100002930024039404940DEB0301284601F08E
:100F200045FD22460621262001F002FF262001F081
:100F300031FF07B030BD00BF003801400010024053
:100F4000000801400044004000B589B0002201467D
:100F50001E2001F0EDFE1E2001F01CFF154BDA698A
:100F600042F00402DA61DB6903F004030193019BA0
:100F700002A903A801F0FCFC01F0DAFC40000E4BD2
:100F8000A3FB00239B0C013B0C480D4A026040F27E
:100F9000E732C260436000230361836000F05EFDBE
:100FA00018B9064800F040FC00E0012009B05DF8E7
:100FB00004FB00BF0010024083DE1B43740F0020BF
:100FC00000080040F0B44B6901229A400468D4F84C
:100FD000003223F47C534D6A43EA052343F00103B6
:100FE000C4F800320568D5F81C32D4432340C5F854
:100FF0001C32CB69C3B90568D5F80C322340C5F85B
:101000000C3206684B69CF688D8845EA074548333E
:1010100046F8335003684E698F680D8845EA0745E6
:10102000483603EBC6035D60CB69012B18D1056818
:10103000D5F80C321343C5F80C3206684B690F68BB
:101040008D8845EA0745483346F8335003684E69B2
:101050008F688D8945EA0745483603EBC6035D6016
:101060008B6933B90568D5F804322340C5F80432DA
:1010700005E00568D5F804321343C5F804320B695E
:1010800033B90568D5F814321C40C5F8144205E0A0
:101090000468D4F814321343C4F814320B6A012BD9
:1010A00005D10168D1F81C321A43C1F81C2202682C
:1010B000D2F8003223F00103C2F800320020F0BC65
:1010C000704700BF002800F0A08038B5044690F8B3
:1010D0003C3013F0FF0F04D1002380F83D30FFF7C0
:1010E00061FE022384F83C302268136823F0020377
:1010F00013602268136843F00103136001F0FCF8E9
:1011000005460BE001F0F8F8401B0A2806D9032039
:1011100084F83C00002384F83D3038BD23685A68C9
:1011200012F0010FEED05A6812F0010F5ED0A269E2
:10113000012A01D1802200E00022E169012902D1C7
:1011400042F0400201E022F04002216A012902D16E
:1011500042F0200201E022F02002616A012902D15E
:1011600042F0100201E022F01002A16A012902D12E
:1011700042F0080201E022F00802E16A012902D1EE
:1011800042F0040201E022F00402196821F0FC019F
:101190000A431A602168A268E3681A4323691A4364
:1011A00063691A436368013B1343CB612268136888
:1011B00023F00103136001F09FF805460BE001F0F6
:1011C0009BF8401B0A2806D9032084F83C00002322
:1011D00084F83D3038BD23685A6812F0010FEED113
:1011E0005B6813F0010F03D0002302E0002300E04E
:1011F00001232BB100202064012384F83C3038BD4A
:10120000042384F83C30012038BD0120704700BF22
:101210000B4699B990F83C20D2B2222A78D090F8A7
:101220003C20D2B2422A75D090F83C20D2B2622A39
:1012300072D090F83C20D2B2722A6FD0012B13D119
:1012400090F83C20D2B2322A6AD090F83C20D2B238
:10125000522A67D090F83C20D2B2622A64D090F82B
:101260003C20D2B2722A61D090F83D20012A5FD092
:1012700010B4012280F83D20C3B990F83C20D2B2CE
:10128000322A07D0522A09D0122A0BD1422280F8E2
:101290003C2023E0622280F83C201FE0722280F88C
:1012A0003C201BE0222280F83C2017E090F83C20F4
:1012B000D2B2222A07D0422A09D0122A0BD15222B6
:1012C00080F83C200AE0622280F83C2006E072228E
:1012D00080F83C2002E0322280F83C2000210164AA
:1012E0000468626942F40F4242F00102626180F8D0
:1012F0003D1033B90268536943F00A03536108464D
:1013000018E00268536943F050035361002011E074
:101310000220704702207047022070470220704769
:101320000220704702207047022070470220704759
:101330000220704710BC7047704700BF08B50268B4
:10134000536923F00103536190F83C30DBB2122B58
:1013500004D10268536923F40F43536190F83C3081
:10136000DBB2522B07D0722B09D0422B0BD1222398
:1013700080F83C300AE0322380F83C3006E06223FB
:1013800080F83C3002E0012380F83C30FFF7D4FFC6
:10139000002008BD704700BF10B50C4609B9436B6B
:1013A00000E0836B016804F11B0212018A5802F00D
:1013B00004029A603AB9016804F11B0212018A58CA
:1013C000520D1A6006E0016804F11B0212018A58EE
:1013D000D2085A60016804F11B021201895801F019
:1013E0000201D96001681144496801F00F011961D7
:1013F0001C6201680A445268C2F30722DA6101687C
:1014000022011144D1F8B811197501681144D1F8BD
:10141000B811090A597501681144D1F8B811090CBD
:10142000997501681144D1F8B811090ED975016890
:101430001144D1F8BC11197601681144D1F8BC11DE
:10144000090A597601681144D1F8BC11090C997642
:1014500001680A44D2F8BC21120EDA7644B9036856
:101460002022DA600268536923F00A03536107E01F
:10147000036820221A610268536923F05003536104
:1014800090F83C30DBB2222B01D0322B04D1026821
:10149000536923F40F435361C4B990F83C30DBB275
:1014A000622B07D0722B09D0422B0BD1122380F86C
:1014B0003C3023E0322380F83C301FE0522380F898
:1014C0003C301BE0012380F83C3017E090F83C30C2
:1014D000DBB2622B07D0722B09D0522B0BD1122317
:1014E00080F83C300AE0222380F83C3006E04223BA
:1014F00080F83C3002E0012380F83C30FFF74AFFDF
:10150000002010BD704700BF70B504460268D16866
:10151000536911F0100F07D003F0080333B1102303
:10152000D3604FF4007502E0002500E0002522683A
:101530001169536903F0400311F0100F04D01BB17F
:1015400045F480651023136123685A6912F0010F76
:101550002AD09E689968654A0A40996821F06F41CF
:1015600021F47E01090C09046148B04305D05F48AD
:10157000824202D05F4A914216D199689A6802F479
:1015800000729B6803F0010311F0020F01D102B950
:101590001BB12046FFF7D2FE01E045F4006522684A
:1015A0009168554B0B4393602368DA685B6903F0DD
:1015B000020312F0030F04D01BB100212046FFF7F5
:1015C000EBFE23681A695B6903F0100312F0030F46
:1015D00004D01BB101212046FFF7DEFE236C2B4314
:1015E0002364236898695A6902F48072596901F486
:1015F000004110F0010F05D022B119B1226C42F068
:101600000102226498695A6902F40072596901F46E
:10161000004110F0020F05D022B119B1226C42F046
:101620000202226498695A6902F48062596901F4DD
:10163000004110F0040F05D022B119B1226C42F024
:101640000402226498695A6902F40062596901F43B
:10165000004110F0700F36D0002A34D0002932D06B
:101660009A6902F07002302A16D004D8102A09D0E4
:10167000202A0CD023E0502A18D0602A1BD0402A00
:101680001DD10EE0226C42F00802226417E0226CA9
:1016900042F01002226412E0226C42F02002226426
:1016A0000DE0226C42F04002226408E0226C42F01D
:1016B0008002226403E0226C42F4807222649A6900
:1016C00022F070029A61236C7BB1236804225A6075
:1016D000012384F83C302268536923F40F4323F03C
:1016E0005B0353612046FFF70DFF70BD000100084A
:1016F00001000004000001100905010070B4036A34
:1017000023F001030362036A4668826922F07302D0
:101710000C6842EA040523F002028B6813430F4C65
:10172000A04202D00E4A904205D123F00803CA68B5
:10173000134323F00403094CA04202D0084A90420C
:1017400005D126F440764A6932438E6916434660D5
:1017500085614A684263036270BC7047002C014097
:101760000034014030B4036A23F480730362036AD7
:101770004568C26922F073020C68224323F40073A7
:101780008C6843EA0423124CA04203D004F50064A1
:10179000A04206D123F40063CC6843EA042323F477
:1017A00080630B4CA04203D004F50064A04207D133
:1017B00025F440554C6945EA04158C6945EA041541
:1017C0004560C2614A68C263036230BC704700BFB3
:1017D000002C014030B4036A23F480530362036A8F
:1017E0004468C26922F4E6420D6842EA052223F405
:1017F00000538D6843EA0533094DA84203D005F52F
:101800000065A84204D124F480444D6944EA85145B
:101810004460C2614A680264036230BC704700BF22
:10182000002C0140704700BF0268D36843F00103F9
:10183000D3600268136843F001031360002070470F
:10184000704700BF704700BF704700BF704700BFC0
:1018500010B5044603681A6912F0020F17D0DA684F
:1018600012F0020F13D06FF002021A610123037706
:1018700003689B6913F0030F02D0FFF7E3FF04E056
:10188000FFF7DEFF2046FFF7DFFF00232377236803
:101890001A6912F0040F19D0DA6812F0040F15D08B
:1018A0006FF004021A610223237723689B6913F403
:1018B000407F03D02046FFF7C5FF05E02046FFF735
:1018C000BFFF2046FFF7C0FF0023237723681A6974
:1018D00012F0080F19D0DA6812F0080F15D06FF067
:1018E00008021A61042323772368DB6913F0030FCE
:1018F00003D02046FFF7A6FF05E02046FFF7A0FF34
:101900002046FFF7A1FF0023237723681A6912F00E
:10191000100F19D0DA6812F0100F15D06FF0100206
:101920001A61082323772368DB6913F4407F03D00F
:101930002046FFF787FF05E02046FFF781FF20469E
:10194000FFF782FF0023237723681A6912F0010F43
:1019500009D0DA6812F0010F05D06FF001021A61A8
:101960002046FFF765F823681A6912F0800F09D046
:10197000DA6812F0800F05D06FF080021A612046FD
:1019800000F0A6F923681A6912F0400F09D0DA684E
:1019900012F0400F05D06FF040021A612046FFF7A9
:1019A00055FF23681A6912F0200F09D0DA6812F087
:1019B000200F05D06FF020021A61204600F086F952
:1019C00010BD00BF0368244A904212D002F50062A5
:1019D00090420ED0B0F1804F0BD0A2F598329042D9
:1019E00007D002F58062904203D002F580629042F7
:1019F00003D123F070034A681343174A904212D070
:101A000002F5006290420ED0B0F1804F0BD0A2F5EB
:101A10009832904207D002F58062904203D002F5DE
:101A20008062904203D123F44073CA68134323F0C9
:101A300080034A69134303608B68C3620B68836247
:101A4000054B984203D003F50063984201D10B691E
:101A50000363012343617047002C0140B8B110B506
:101A6000044690F83D3013F0FF0F04D1002380F8B6
:101A70003C30FFF7D7FE022384F83D30211D20685B
:101A8000FFF7A0FF012384F83D30002010BD0120A6
:101A9000704700BFB8B110B5044690F83D3013F060
:101AA000FF0F04D1002380F83C30FFF7BDF902237B
:101AB00084F83D30211D2068FFF784FF012384F85E
:101AC0003D30002010BD0120704700BF30B4036AD4
:101AD00023F010030362036A4468826922F4E64239
:101AE0000D6842EA052223F020038D6843EA0513BE
:101AF000114DA84203D005F50065A84206D123F098
:101B00008003CD6843EA051323F040030A4DA84241
:101B100003D005F50065A84207D124F440644D695F
:101B200044EA85048D6944EA8504446082614A6818
:101B30008263036230BC7047002C014038B590F8D6
:101B40003C30012B66D00D460446012380F83C3022
:101B5000022380F83D300C2A55D8DFE802F0075404
:101B600054541A5454542E54545441000068FFF7EE
:101B7000C5FD2268936943F0080393612268936965
:101B800023F004039361226891692B690B439361ED
:101B900039E00068FFF79AFF2268936943F4006315
:101BA00093612268936923F4806393612268936947
:101BB000296943EA0123936125E00068FFF7D2FD1C
:101BC0002268D36943F00803D3612268D36923F004
:101BD0000403D3612268D1692B690B43D36112E0FE
:101BE0000068FFF7F7FD2268D36943F40063D3610F
:101BF0002268D36923F48063D3612268D369296999
:101C000043EA0123D361012384F83D30002084F8A6
:101C10003C0038BD022038BD10B4012303FA01F4A2
:101C2000036A23EA04030362036A8A401A430262D6
:101C300010BC704710B5044601220068FFF7ECFFA6
:101C400023680C4A934205D002F50062934203D107
:101C5000012202E0012200E000221AB15A6C42F493
:101C600000425A642268136843F0010313600020A5
:101C700010BD00BF002C014090F83C30012B21D05A
:101C800030B4012280F83C20022380F83D30046803
:101C9000636823F070036360046865680B682B4316
:101CA00063600468A36823F08003A3600468A568E8
:101CB0004B682B43A36080F83D20002380F83C3024
:101CC000184601E00220704730BC7047704700BFE3
:101CD000704700BF0268D36823F49073D360026832
:101CE000536923F001035361202380F83A30704791
:101CF00090F83930DBB2212B2BD18368B3F5805FAC
:101D00000FD1036A02681B88C3F308035360036999
:101D10001BB9036A0233036209E0036A01330362F9
:101D200005E00268036A591C01621B785360C38C8A
:101D30009BB2013B9BB2C3846BB90268D36823F0AA
:101D40008003D3600268D36843F04003D36000206F
:101D50007047022070470020704700BF2DE9F8430C
:101D6000814601680B6923F44052C36813430B6139
:101D7000816803691943436919430068C26822F402
:101D8000B05323F00C030B43C360D9F800104B6928
:101D900023F44072D9F8183013434B61D9F800503E
:101DA0005B4B9D4259D100F0D3FD00EB800000EB6E
:101DB0008000D9F80440A400B0FBF4F4554EA6FB13
:101DC00004346409240100F0C3FD00EB800000EB43
:101DD0008000D9F804309B00B0FBF3F700F0B8FDA9
:101DE00000EB800000EB8000D9F804309B00B0FBD2
:101DF000F3F3A6FB03235B094FF0640808FB13739E
:101E00001B013233A6FB03235B0903F0F0031C44E0
:101E100000F09EFD00EB800000EB8000D9F804305C
:101E20009B00B0FBF3F700F093FD00EB800000EBAC
:101E30008000D9F804309B00B0FBF3F3A6FB03232A
:101E40005B0908FB13731B013233A6FB0323C3F3A7
:101E500043131C44AC60BDE8F88300F069FD00EB5F
:101E6000800000EB8000D9F80440A400B0FBF4F43B
:101E7000284EA6FB04346409240100F059FD00EB50
:101E8000800000EB8000D9F804309B00B0FBF3F732
:101E900000F04EFD00EB800000EB8000D9F804302C
:101EA0009B00B0FBF3F3A6FB03235B094FF0640830
:101EB00008FB13731B013233A6FB03235B0903F0FA
:101EC000F0031C4400F034FD00EB800000EB8000C8
:101ED000D9F804309B00B0FBF3F700F029FD00EBCC
:101EE000800000EB8000D9F804309B00B0FBF3F3D6
:101EF000A6FB03235B0908FB13731B013233A6FB0C
:101F00000323C3F343131C44AC60BDE8F88300BF54
:101F1000003801401F85EB512DE9F04105460F4681
:101F200016469846069C1EE0B4F1FF3F1BD02CB12C
:101F300000F0E2F9C8EB0000844214D22A68D368AA
:101F400023F4D073D3602A68536923F001035361EB
:101F5000202385F8393085F83A30002385F8383069
:101F60000320BDE8F0812B681B6837EA03030CBF30
:101F700001230023B342D7D00020BDE8F08100BF89
:101F800068B310B5044690F8393013F0FF0F04D150
:101F9000002380F83830FEF77BFF242384F83930A3
:101FA0002268D36823F40053D3602046FFF7D6FE9F
:101FB0002268136923F4904313612268536923F064
:101FC0002A0353612268D36843F40053D36000208E
:101FD000E063202384F8393084F83A3010BD0120C2
:101FE000704700BF2DE9F04182B01E4690F83930AD
:101FF000DBB2202B56D104460D469046002953D023
:10200000002A53D090F83830012B51D0012380F8AA
:1020100038300023C363212380F8393000F06CF995
:102020000746A4F82480A4F8268027E0E38C9BB21E
:10203000013B9BB2E384A368B3F5805F12D10096A5
:102040003B46002280212046FFF766FF90BB2268B6
:102050002B88C3F30803536023690BB902350DE0E5
:1020600001350BE000963B46002280212046FFF719
:1020700053FF08BB23682A785A600135E38C9BB272
:10208000002BD3D100963B46002240212046FFF78B
:1020900043FF034690B9202284F83920002284F8B7
:1020A00038200CE002230AE0012308E0012306E0C7
:1020B000022304E0032302E0032300E00323184685
:1020C00002B0BDE8F08100BF704700BF08B50168ED
:1020D000CB6823F04003CB60202380F83930FFF732
:1020E000F3FF002008BD00BF704700BF08B590F89F
:1020F0003A30DBB2222B44D18368B3F5805F13D131
:10210000826A036943B903685B68C3F308031380F9
:10211000836A0233836218E003685B68DBB2138072
:10212000836A0133836210E0036933B9836A5A1CFE
:102130008262026852681A7007E0826A531C8362E6
:1021400003685B6803F07F031370C38D9BB2013B90
:102150009BB2C385BBB90268D36823F02003D36068
:102160000268D36823F48073D3600268536923F054
:1021700001035361202380F83A30FFF7B5FF0020B8
:1021800008BD022008BD002008BD00BF704700BF89
:1021900010B5044602681368D168526913F00F0045
:1021A00009D113F0200F06D011F0200F03D02046E4
:1021B000FFF79CFF10BD002862D012F0010202D18F
:1021C00011F4907F5CD013F0010F06D011F4807FE2
:1021D00003D0E06B40F00100E06313F0040F04D083
:1021E0001AB1E06B40F00200E06313F0020F04D07C
:1021F0001AB1E06B40F00400E06313F0080F04D064
:102200001AB1E26B42F00802E263E26B002A4AD0A4
:1022100013F0200F05D011F0200F02D02046FFF759
:1022200065FF23685B6903F04003E26B12F0080F5F
:1022300000D1FBB12046FFF74DFD23685A6912F02B
:10224000400F13D05A6922F040025A61636B4BB1C0
:10225000154A5A63606B00F0A5FC20B3606B436BBA
:10226000984710BD2046FFF791FF10BD2046FFF7AD
:102270008DFF10BD2046FFF789FF0023E36310BDEB
:1022800013F0800F06D011F0800F03D02046FFF727
:102290002FFD10BD13F0400F05D011F0400F02D0FC
:1022A0002046FFF713FF10BDAD22000808B5406AB5
:1022B0000023C385C384FFF769FF08BD08B5074A3B
:1022C000136843F010031360032000F01FFD00208B
:1022D000FEF73AFEFEF716FD002008BD0020024082
:1022E000034A1368034909780B441360704700BF21
:1022F000B40F002000000020014B1868704700BF99
:10230000B40F002082B0084B1B68084AA2FB0323CD
:102310005B0A00FB03F0019000BF019B5A1E019273
:10232000002BF9D102B0704704000020D34D621099
:1023300070B582B00446036813F0010F6BD0A84B50
:102340005B6803F00C03042B0AD0A54B5B6803F019
:102350000C03082B0DD1A24B5B6813F4803F08D00F
:102360009F4B1B6813F4003F55D06368002B52D17C
:10237000B8E16368B3F5803F05D1994A136843F427
:102380008033136026E063B903F1804303F504331F
:102390001A6822F480321A601A6822F480221A60C5
:1023A00018E0B3F5A02F0CD103F18043A3F53C3323
:1023B0001A6842F480221A601A6842F480321A6065
:1023C00008E0874B1A6822F480321A601A6822F4F7
:1023D00080221A6063687BB1FFF78EFF054605E037
:1023E000FFF78AFF401B642800F27E817C4B1B684C
:1023F00013F4003FF4D00EE0FFF77EFF054605E042
:10240000FFF77AFF401B642800F27081744B1B6851
:1024100013F4003FF4D1236813F0020F50D0704B37
:102420005B6813F00C0F0AD06D4B5B6803F00C0374
:10243000082B16D16A4B5B6813F4803F11D1684BAF
:102440001B6813F0020F03D02369012B40F0508169
:10245000634A136823F0F803616943EAC103136018
:102460002EE02369D3B101225E4B1A60FFF744FFCF
:10247000054605E0FFF740FF401B022800F23A81C5
:10248000574B1B6813F0020FF4D0554A136823F022
:10249000F803616943EAC103136011E00022514B64
:1024A0001A60FFF729FF054605E0FFF725FF401BEF
:1024B000022800F221814A4B1B6813F0020FF4D16D
:1024C000236813F0080F29D0A369ABB10122464B52
:1024D0001A60FFF711FF054605E0FFF70DFF401BEF
:1024E000022800F20B813E4B5B6A13F0020FF4D01E
:1024F0000120FFF707FF11E000223B4B1A60FFF7B6
:10250000FBFE054605E0FFF7F7FE401B022800F240
:10251000F780334B5B6A13F0020FF4D1236813F09A
:10252000040F00F089802E4BDB6913F0805F0BD124
:102530002B4BDA6942F08052DA61DB6903F0805399
:102540000193019B012500E00025284B1B6813F433
:10255000807F13D1254A136843F480731360FFF71B
:10256000CBFE064605E0FFF7C7FE801B642800F29D
:10257000C9801E4B1B6813F4807FF4D0E368012BE5
:1025800005D1174A136A43F00103136222E063B9CD
:1025900003F1804303F504331A6A22F001021A6240
:1025A0001A6A22F004021A6214E0052B09D10C4BBE
:1025B0001A6A42F004021A621A6A42F001021A62AE
:1025C00008E0074B1A6A22F001021A621A6A22F026
:1025D00004021A62E368CBB1FFF78EFE06460FE0F5
:1025E000001002400000424280044242007000405D
:1025F000FFF782FE801B41F28833984200F284800C
:10260000494B1B6A13F0020FF2D00FE0FFF774FE84
:10261000064606E0FFF770FE801B41F288339842C1
:1026200074D8414B1B6A13F0020FF3D125B13E4A17
:10263000D36923F08053D361E369002B68D03A4A11
:10264000526802F00C02082A64D0022B37D1002213
:10265000364B1A60FFF750FE054604E0FFF74CFECC
:10266000401B022858D8304B1B6813F0007FF5D16F
:10267000236AB3F5803F06D12B494B6823F400321F
:10268000A36813434B602848436823F47411236AFA
:10269000626A13430B4343600122244B1A60FFF725
:1026A0002BFE044604E0FFF727FE001B022835D866
:1026B0001D4B1B6813F0007FF5D0002031E0002295
:1026C0001A4B1A60FFF718FE044604E0FFF714FEE9
:1026D000001B022824D8144B1B6813F0007FF5D18F
:1026E00000201EE001201CE003201AE0032018E077
:1026F000012016E0032014E0032012E0032010E084
:1027000003200EE003200CE003200AE0032008E091
:10271000002006E0012004E0032002E0032000E0A6
:10272000032002B070BD00BF0010024060004242B2
:1027300030B486B0164D02AC28686968AA68EB68A8
:102740000FC42B8AADF80430124B5B6803F00C0207
:10275000082A19D1C3F3834206A90A4412F8100CBF
:1027600013F4803F0CD00B4B5B68C3F340430B4426
:1027700013F8142C084B03FB00F0B0FBF2F004E05C
:10278000064B03FB00F000E0034806B030BC704786
:10279000B84D00080010024000127A0000093D0008
:1027A00070B55C4B1B6803F007038B420BD2594A90
:1027B000136823F007030B431360136803F0070348
:1027C000994240F09780036813F0020F06D0524CF4
:1027D000636823F0F0028368134363600D46044688
:1027E000036813F0010F4DD04268012A05D14A4B0E
:1027F0001B6813F4003F0DD17EE0022A05D1464B41
:102800001B6813F0007F05D178E0434B1B6813F081
:10281000020F75D040494B6823F0030313434B600C
:10282000FFF76AFD06466368012B0ED106E0FFF74D
:1028300063FD801B41F28833984263D8364B5B6856
:1028400003F00C03042BF2D11CE0022B15D106E09F
:10285000FFF752FD801B41F28833984254D82E4B2B
:102860005B6803F00C03082BF2D10BE0FFF744FD8B
:10287000801B41F28833984248D8274B5B6813F09D
:102880000C0FF3D1234B1B6803F007039D420AD2C0
:10289000204A136823F007032B431360136803F0E7
:1028A00007039D4234D1236813F0040F06D01A4960
:1028B0004B6823F4E062E36813434B60236813F032
:1028C000080F07D0144A536823F46053216943EA80
:1028D000C1035360FFF72CFF0F4B5B68C3F3031377
:1028E0000E4AD35CD8400E4B18600020FEF72CFB3C
:1028F000002070BD012070BD012070BD012070BDA1
:10290000012070BD032070BD032070BD032070BD89
:10291000012070BD0020024000100240A44E0008BB
:1029200004000020014B1868704700BF040000201D
:1029300008B5FFF7F7FF044B5B68C3F30223034AB4
:10294000D35CD84008BD00BF00100240B44E000860
:1029500008B5FFF7E7FF044B5B68C3F3C223034AE4
:10296000D35CD84008BD00BF00100240B44E000840
:102970000F2303600B4B5A6802F0030242605A684F
:1029800002F0F00282605A6802F4E062C2605B68A2
:10299000DB0803F4E0630361034B1B6803F00703E8
:1029A0000B6070470010024000200240F0B583B079
:1029B00000263446DFE00122A2400B6813409A4211
:1029C00040F0D8804D68122D2DD00BD8022D27D085
:1029D00003D85DB3012D1ED035E0032D30D0112D6D
:1029E0001BD030E0664FBD4220D008D8A7F5801735
:1029F000BD421BD007F58037BD4224D116E0614FA0
:102A0000BD4213D007F58037BD420FD0A7F5801720
:102A1000BD4218D10AE0CE6815E0CE68043612E057
:102A2000CE6808360FE0CE680C360CE08D684DB1EC
:102A3000012D02D10261082605E04261082602E06C
:102A4000002600E00426FF2B01D8864601E000F1B5
:102A5000040EFF2B01D8A20002E0A4F108029200AC
:102A6000DEF800700F25954027EA050506FA02F208
:102A70002A43CEF800204A6812F0805F7AD0424A9A
:102A8000956945F001059561926902F00102019294
:102A9000019AA708BD1C3D4A52F825E004F0030244
:102AA00092000F2595402EEA050E394DA84215D00B
:102AB00005F58065A84213D005F58065A84211D0C0
:102AC00005F58065A8420FD005F58065A8420DD0B8
:102AD00005F58065A8420BD105250AE0002508E030
:102AE000012506E0022504E0032502E0042500E0BC
:102AF000062505FA02F24EEA02020237234D45F896
:102B000027204A6812F4803F05D005F580652A68C1
:102B10001A432A6004E01F4D2A6822EA03022A6051
:102B20004A6812F4003F04D01A4D6A681A436A607A
:102B300004E0184D6A6822EA03026A604A6812F4E7
:102B4000801F04D0134DAA681A43AA6004E0114DF7
:102B5000AA6822EA0302AA604A6812F4001F04D09D
:102B60000C4DEA681343EB6004E00A4DEA6822EA80
:102B70000303EB6001340F2C7FF61DAF03B0F0BDF3
:102B80000000211000003110001002400000014040
:102B900000080140000401400AB1016170470904C6
:102BA0000161704708B590F82130022B03D004234F
:102BB0008363012008BD0268136823F00E031360CD
:102BC0000268136823F00103136003684B4A9342C1
:102BD00043D9783A934221D01432934220D0143210
:102BE00093421FD0143293421FD0143293421FD00D
:102BF000143293421FD0143293421FD002F56272F6
:102C000093421ED0143293421DD0143293421CD0F2
:102C1000143293421CD14FF480521BE0012219E080
:102C2000102217E04FF4807214E04FF4805211E04C
:102C30004FF480320EE04FF480120BE04FF08072C0
:102C400008E0012206E0102204E04FF4807201E067
:102C50004FF480322A4B5A6042E02A4A934221D0F4
:102C60001432934220D0143293421FD01432934234
:102C70001FD0143293421FD0143293421FD014320B
:102C800093421FD002F5627293421ED014329342D7
:102C90001DD0143293421CD0143293421CD14FF4F5
:102CA00080521BE0012219E0102217E04FF48072DD
:102CB00014E04FF4805211E04FF480320EE04FF4F4
:102CC00080120BE04FF0807208E0012206E0102233
:102CD00004E04FF4807201E04FF480320A4B5A60F6
:102CE000012380F82130002380F82030436B13B19A
:102CF0009847002008BD002008BD00BF80000240AA
:102D0000000402400800024000000240074AD36865
:102D100023F4E0631B041B0C000200F4E060184382
:102D200040F0BF6040F40030D060704700ED00E03C
:102D300030B4164BDB68C3F30223C3F10704042C41
:102D400028BF04241D1D062D01D9DD1E00E000252D
:102D5000012303FA04F4013C2140A940AB40013BAC
:102D60001A400A43002806DA00F00F001201D2B21E
:102D7000074B1A5407E01201D2B200F1604000F58F
:102D8000614080F8002330BC704700BF00ED00E0D8
:102D900014ED00E0420900F01F00012303FA00F0E7
:102DA000014B43F82200704700E100E00138B0F128
:102DB000807F0AD2064B5860F021064A82F8231021
:102DC0000020986007221A6070470120704700BFFA
:102DD00010E000E000ED00E0042805D1054A13688A
:102DE00043F0040313607047024A136823F004039E
:102DF0001360704710E000E00F4B1A6842F00102C8
:102E00001A6059680D4A0A405A601A6822F08472A2
:102E100022F480321A601A6822F480221A605A68FA
:102E200022F4FE025A604FF41F029A604FF00062D3
:102E3000034B9A60704700BF001002400000FFF88B
:102E400000ED00E0124A12F0070F07D0D11D21F06B
:102E50000701C1F5406313440A4601E04FF44063A3
:102E60000C480260002141601344083B23F0070333
:102E70000948036059601960991A51601360074B43
:102E80001960074B19604FF00042064B1A607047FB
:102E9000B4000020AC000020A8000020B80C0020E6
:102EA000A4000020B40C0020124B00E013461A6866
:102EB0008242FBD310B45C681919884203D141687F
:102EC000214459601846446801198A420CD10A49C4
:102ED00009688A4206D05268224442601A68126821
:102EE000026002E0016000E00260984200D01860D9
:102EF00010BC7047AC000020A800002070B504464C
:102F000000F0D0FB394B1B680BB9FFF79BFF384B28
:102F10001B681C4253D194B1083414F0070F0ED033
:102F200024F00704083404F0070343B14FF05003C2
:102F300083F31188BFF36F8FBFF34F8FFEE7002C31
:102F40003FD02C4B1B689C423DD82B4B1D6801E0A9
:102F50002B4615466A68944202D92A68002AF7D19E
:102F6000224A1268954230D01E6808362A681A60D4
:102F70006B681B1B102B10D9281910F0070F08D0F5
:102F80004FF0500383F31188BFF36F8FBFF34F8F60
:102F9000FEE743606C60FFF787FF6A6815490B68BE
:102FA0009B1A0B60154909688B4201D213490B60CB
:102FB0000F4B1B681A436A6000232B6006E0002653
:102FC00004E0002602E0002600E0002600F004FCF9
:102FD00016F0070F08D04FF0500383F31188BFF3AA
:102FE0006F8FBFF34F8FFEE7304670BDA800002003
:102FF000B40C0020A4000020AC000020B80C00207D
:10300000A0B338B50346A0F1080550F8042C1849C0
:10301000096812EA010408D14FF0500383F31188C4
:10302000BFF36F8FBFF34F8FFEE750F8080C40B12E
:103030004FF0500383F31188BFF36F8FBFF34F8FAF
:10304000FEE794B188B91C4622EA010243F8042C39
:1030500000F028FB54F8043C064A11680B44136046
:103060002846FFF721FF00F0B7FB38BD704700BFCF
:10307000B40C0020A40000200B4B1B68B3F1FF3FF1
:1030800008D04FF0500383F31188BFF36F8FBFF365
:103090004F8FFEE74FF0500383F31188BFF36F8F1C
:1030A000BFF34F8FFEE700BF08000020064800680E
:1030B000006880F3088862B661B6BFF34F8FBFF334
:1030C0006F8F00DF00BF000008ED00E04FF080735D
:1030D00040F8043C21F0010140F8081C034B40F883
:1030E0000C3C40F8202C4038704700BF7930000875
:1030F000074B19680868B0E8F00F80F30988BFF340
:103100006F8F4FF0000080F311884EF00D0E704766
:10311000840D00204FF0500383F31188BFF36F8FAD
:10312000BFF34F8F0A4A136801331360012B0DD18F
:10313000084B1B6813F0FF0F08D04FF0500383F3C8
:103140001188BFF36F8FBFF34F8FFEE7704700BF4B
:103150000800002004ED00E0094B1B6843B94FF064
:10316000500383F31188BFF36F8FBFF34F8FFEE7D8
:10317000013B034A13600BB983F31188704700BF0A
:103180000800002000000000000000000000000017
:10319000EFF30980BFF36F8F0D4B1A6820E9F00F32
:1031A00010602DE908404FF0500080F3118800F0C6
:1031B000F5FB4FF0000080F31188BDE80840196866
:1031C0000868B0E8F00F80F30988BFF36F8F70478D
:1031D000840D002008B54FF0500383F31188BFF32E
:1031E0006F8FBFF34F8F00F065FA18B14FF0805228
:1031F000024B1A60002383F3118808BD04ED00E040
:10320000064B1B68064AA2FB03239B09013B054AA8
:1032100013600722044B1A60704700BF04000020AF
:10322000D34D621014E000E010E000E000B583B080
:103230001F4B1A78D2B20192FF221A701B78DBB2B0
:103240008DF803309DF8033003F05003194A1370D2
:103250000722194B1A6009E0174A1368013B1360F3
:103260009DF803305B00DBB28DF803309DF803302E
:1032700013F0800FF0D1104A13681B0203F4E063CF
:103280001360019BDBB20A4A13700C4B1A6842F4BC
:1032900070021A601A6842F070421A60FFF7B0FFBD
:1032A0000022074B1A60FFF701FFFFF7E5FE00BFA2
:1032B00000E400E0BC0C0020C00C002020ED00E089
:1032C0000800002000F1080343604FF0FF328260E5
:1032D000C360036100230360704700BF00230361E4
:1032E000704700BF43684B609A688A609A68516073
:1032F00099600861036801330360704730B40D685A
:10330000B5F1FF3F01D1026907E000F1080200E0DA
:103310001A4653681C68A542FAD253684B609960FC
:103320008A605160086103680133036030BC7047F4
:1033300003694268816891608268416851605A6897
:10334000904201D182685A600022026118680138F7
:10335000186070470A4B1B681B680BB9012300E01B
:10336000002323B14FF0FF32064B1A607047044B25
:103370001B68DB68DB685A68024B1A60704700BF45
:10338000C80C0020A40D002010B50446006BFFF708
:1033900037FE2046FFF734FE10BD00BF2DE9F04791
:1033A00080469946089D099F0A9C236B02F1804242
:1033B000013A03EB820626F00706002306E0C85C0C
:1033C000E21882F83400CA5C12B101330F2BF6D92F
:1033D000002384F84330062D00D90625E562656494
:1033E0004FF0000AC4F848A0201DFFF777FF04F152
:1033F0001800FFF773FF2461C5F10705A56164623A
:10340000C4F84CA084F850A04A4641463046FFF725
:103410005DFE206007B13C60BDE8F08738B5002450
:1034200007E004EB840293000E481844FFF74AFFBC
:103430000134062CF5D90C4D2846FFF743FF0B4C01
:103440002046FFF73FFF0A48FFF73CFF0948FFF718
:1034500039FF0948FFF736FF084B1D60084B1C6019
:1034600038BD00BFEC0C0020AC0D0020C00D0020CA
:10347000880D0020D00C0020D40D0020C80C0020A6
:10348000E40C002010B50446FFF744FE204A136800
:10349000013313601F4B1B683BB91E4B1C60136844
:1034A000012B0DD1FFF7BAFF0AE01B4B1B683BB99C
:1034B000184B1B68DA6AE36A9A4201D8154B1C6004
:1034C000164A136801331360E36A012202FA03F11A
:1034D000134802680A43026003EB83039A00211D2C
:1034E00010481044FFF7FEFEFFF736FE0A4B1B683C
:1034F0006BB1084B1B68DA6AE36A9A4207D24FF055
:103500008052094B1A60BFF34F8FBFF36F8F10BD0E
:10351000800D0020840D0020CC0C0020A80D002080
:10352000E80D0020EC0C002004ED00E070B504462E
:103530000E461D4B1D681D4B18680430FFF7F8FE42
:1035400050B91A4B1B68DA6A012303FA02F21849D0
:103550000B6823EA02030B60B4F1FF3F07D136B1D9
:10356000124B196804311348FFF7BCFE70BD2C44A0
:103570000E4B1B685C60A54207D90F4B18680B4BBC
:1035800019680431FFF7BAFE70BD0C4B1868074B81
:1035900019680431FFF7B2FE094B1B689C4201D247
:1035A000074B1C6070BD00BFA00D0020840D0020E3
:1035B000E80D0020D40D0020E40C0020C80C0020F1
:1035C000A40D00202DE9F04385B006460F461546B0
:1035D00098469000FFF792FC60B181465420FFF7B7
:1035E0008DFC044610B1C0F8309004E04846FFF767
:1035F00007FD00E000248CB10023039302940D9B8F
:1036000001930C9B009343462A4639463046FFF708
:10361000C5FE2046FFF736FF012001E04FF0FF30E6
:1036200005B0BDE8F08300BF00B583B0174B019330
:1036300000230093802216491648FFF7C3FF012894
:1036400014D14FF0500383F31188BFF36F8FBFF392
:103650004F8F4FF0FF32104B1A6001220F4B1A6050
:1036600000220F4B1A60FFF7E1FD0BE0B0F1FF3FC6
:1036700008D14FF0500383F31188BFF36F8FBFF36E
:103680004F8FFEE703B05DF804FB00BF9C0D0020E8
:10369000BC4E000875390008A40D0020CC0C002099
:1036A000A00D0020024A136801331360704700BF69
:1036B000780D0020F8B53D4B1B68002B69D13C4BC1
:1036C0001D6801351D60C5B93A4B1B681B6843B1C5
:1036D0004FF0500383F31188BFF36F8FBFF34F8F09
:1036E000FEE7344A1168344B186810601960334A99
:1036F000136801331360FFF72DFE314B1B689D42A9
:1037000003D200243AE0012400E00024294B1B6886
:103710001B680BB9012300E0002323B14FF0FF32F7
:10372000274B1A602AE0234B1B68DB68DE6873684E
:103730009D4202D2224A136020E0371D3846FFF72F
:10374000F7FDB36A1BB106F11800FFF7F1FDF36A4C
:10375000012202FA03F11B4802680A43026003EBEC
:1037600083039A00394618481044FFF7BBFDF26AFC
:10377000164B1B68DB6A9A42C5D2C7E7134B1B681E
:10378000DB6A03EB83039A000F4B9B58012B06D88F
:1037900006E00F4A136801331360002400E001249F
:1037A0000C4B1B6803B101242046F8BD780D0020A6
:1037B000A00D0020C80C0020E40C0020C40C002048
:1037C000A40D0020E80D0020EC0C0020840D00204A
:1037D000E80C0020EC0D002038B5344B1B6843B9D1
:1037E0004FF0500383F31188BFF36F8FBFF34F8FF8
:1037F000FEE7FFF78FFC2D4B1A68013A1A601B6831
:10380000002B4CD12A4B1B6833BB00244AE0294BC8
:10381000DB68DC6804F11800FFF78AFD251D2846E7
:10382000FFF786FDE36A012202FA03F122480268EB
:103830000A43026003EB83039A0029461F481044A1
:10384000FFF750FDE26A1E4B1B68DB6A9A4204D305
:1038500001221C4B1A6000E00024164B1B68002B51
:10386000D5D10CB1FFF776FD174B1C6854B1FFF7AB
:1038700021FF10B10122134B1A60013CF7D1002245
:10388000114B1A600F4B1B685BB14FF080520F4B0E
:103890001A60BFF34F8FBFF36F8F012402E0002443
:1038A00000E00024FFF758FC204638BD780D0020CA
:1038B000800D0020880D0020E80D0020EC0C002079
:1038C000840D0020EC0D0020E80C002004ED00E049
:1038D00010B5A8B10446104B1B6843B14FF050031C
:1038E00083F31188BFF36F8FBFF34F8FFEE7FFF7AE
:1038F000D9FE00212046FFF719FEFFF76DFF00E01B
:10390000002038B94FF08052044B1A60BFF34F8F3C
:10391000BFF36F8F10BD00BF780D002004ED00E0F5
:1039200010B51BE0FFF7BEFE0F4B1C68FFF754FFFE
:10393000A4B1FFF7EFFB0C4BDB68DC68201DFFF741
:10394000F7FC0A4A1368013B1360094A1368013BFC
:103950001360FFF701FC2046FFF716FD044B1B68C0
:10396000002BDFD110BD00BFD00C0020800D002047
:103970007C0D002008B5FFF7D3FF064B1B68012B19
:10398000F9D94FF08052044B1A60BFF34F8FBFF349
:103990006F8FF0E7EC0C002004ED00E01F4B1B687C
:1039A0001BB101221E4B1A60704700221C4B1A608B
:1039B0001C4B1B68B3FA83F3DBB2C3F11F0303EBA9
:1039C00083018A0018498A5842B94FF0500383F3A3
:1039D0001188BFF36F8FBFF34F8FFEE730B4124DE6
:1039E0009900CA18900028444268546844601944F9
:1039F0008A0008322A44944205D1606803EB8301AF
:103A00008A002A44506003EB83039A00064B1A4451
:103A10005368DA68054B1A6030BC7047780D002097
:103A2000EC0D0020E80D0020EC0C0020840D00209F
:103A3000054B1B6823B1054B1B681BB9022070475F
:103A40000120704700207047CC0C0020780D00202A
:103A5000842801D0033070470020704708B5FFF775
:103A6000E3FD002008BD00BFF0B585B00F464468F7
:103A700005680669B0F90800FFF7EAFF03AB019398
:103A800000903B46B2B229462046FFF79BFD012835
:103A900001D1039800E0002005B0F0BD08B508B9D9
:103AA0000120FFE7FFF714FF002008BD08B5FFF76E
:103AB000BFFF012801D0FFF78DFB08BD002103E007
:103AC0000B4B5B58435004310A480B4B42189A4247
:103AD000F6D30A4A02E0002342F8043B084B9A421C
:103AE000F9D3FFF789F900F00FF8FDF7A1F8704757
:103AF000644F0008000000207000002070000020CB
:103B0000BC0F0020FEE700000E4B70B51E460E4CA9
:103B10000025E41AA410A54204D056F82530984791
:103B20000135F8E701F028F9084B094C1E46E41A64
:103B3000A4100025A54204D056F825309847013539
:103B4000F8E770BD5C4F00085C4F00085C4F000850
:103B5000604F000810B5431E0A44914204D011F88A
:103B6000014B03F8014FF8E710BD034602449342AE
:103B700002D003F8011BFAE7704700000FB40A4BAC
:103B800013B51C6824B1A36913B9204600F072F87C
:103B900005AB049AA1682046019300F0C9FA02B06F
:103BA000BDE8104004B070476C0000200EB400B5B2
:103BB0004FF402719CB0ADF814106FF00041049105
:103BC00007914FF6FF711DAB02900690084853F81D
:103BD000042BADF81610006802A9019300F08CF9CF
:103BE000029B00221A701CB05DF804EB03B0704712
:103BF0006C000020014900F0A9B800BF1D4A000870
:103C000010B50446002303604360836081814366EE
:103C1000C281036143618361194608225C30FFF76A
:103C2000A4FF054B24626362044BA362044BE3626E
:103C3000044B236310BD00BFC1460008E3460008E3
:103C40001B4700083F47000870B568234D1E5D43C1
:103C50000E4605F1740100F097F8044640B10021CA
:103C600080E842000C30A06005F16802FFF77DFF9C
:103C7000204670BD836910B5044633BB8364C364BA
:103C80000365124B124A1B688262984204BF0123EB
:103C9000836100F01FF86060204600F01BF8A06010
:103CA000204600F017F80022E06004216068FFF76A
:103CB000A7FF01220921A068FFF7A2FF022212211B
:103CC000E068FFF79DFF0123A36110BDC44E00080B
:103CD000F53B0008F8B51C4B07461E68B36913B9DD
:103CE0003046FFF7C7FF4836B4687368013B04D419
:103CF000B4F90C507DB16834F8E733680BB136681D
:103D0000F2E704213846FFF79FFF30600028F6D124
:103D10000C233B60F8BD4FF6FF73E3810123A381C1
:103D200065662560A560656025616561A5610822FD
:103D3000294604F15C00FFF718FF6563A563A564DD
:103D4000E5642046F8BD00BFC44E00082DE9F843E5
:103D50008046894600F14804002694B1A56867684A
:103D6000013F0CD4AB89012B07D9B5F90E300133D3
:103D700003D029464046C84706436835F0E7246823
:103D8000EBE73046BDE8F88370B5CD1C25F00305A0
:103D900008350C2D38BF0C25002D064601DBA94245
:103DA00002D90C23336046E000F0FDFE234B1C6873
:103DB0001A462146A1B10B685B1B0ED40B2B03D90D
:103DC0000B60CC18CD501EE08C420BBF63684B6873
:103DD0001360636018BF0C4615E00C464968E9E7BC
:103DE000174C23681BB9304600F05AFC2060294666
:103DF000304600F055FC431C18D0C41C24F00304CA
:103E0000A0420DD12560304600F0CEFE04F10B003B
:103E1000231D20F00700C31A0ED05A42E25070BD95
:103E2000211A304600F03CFC0130EBD10C2333600A
:103E3000304600F0B9FE002070BD00BFF40D002038
:103E4000F00D00202DE9F0478E6882469E420C4618
:103E5000914698463ED88A8912F4906F3AD02568E8
:103E6000096902236F1A656905EB450595FBF3F5B2
:103E70007B1C43449D4238BF1D4653050FD5294640
:103E8000FFF782FF064698B13A462169FFF762FEC6
:103E9000A38923F4906343F08003A38113E02A46AF
:103EA00000F0D0FE064670B92169504600F07EFE53
:103EB0000C23CAF80030A3894FF0FF3043F04003D1
:103EC000A381BDE8F08726613E44266046466561D1
:103ED000ED1BA560464528BF464649463246206848
:103EE00000F046FEA36800209B1BA36023681E44CD
:103EF0002660BDE8F08700002DE9F04F9DB00393E8
:103F00008B8980461C060D4616460DD50B695BB99C
:103F10004021FFF739FF2860286118B90C23C8F841
:103F20000030CDE040236B610023099320238DF8FE
:103F30002930DFF89CB130238DF82A3037463C46D3
:103F400014F8013B1BB9B7EB060910D003E0252B91
:103F5000F9D02746F3E74B46324629464046FFF75D
:103F600071FF013000F0A780099B4B4409933B7817
:103F7000002B00F0A08000234FF0FF320493079342
:103F8000059206938DF853301A9301260522217865
:103F90004E4800F0DFFD671C049B38B14B4A3C469D
:103FA000801A06FA00F018430490EFE7D90644BFE0
:103FB00020228DF853201A0744BF2B228DF853205E
:103FC00022782A2A03D0079A00210A200BE0039ABC
:103FD000111D12680391002A10DA524243F00200C8
:103FE000079204900BE027463B780134303B092BC5
:103FF00003D800FB02320121F5E701B107923B78BB
:104000002E2B1ED17B782A2B0AD1039B02371A1D37
:104010001B680392002BB8BF4FF0FF33059310E0ED
:10402000002319460593781C0A2407463A78013084
:10403000303A092A03D804FB01210123F5E703B133
:10404000059103223978224800F084FD40B14023D5
:10405000CBEB000003FA00F0049B013718430490F7
:10406000397806221B487E1C8DF8281000F072FD5E
:1040700088B1194B33B9039B073323F00703083387
:10408000039314E003AB00932A46144B04A9404663
:10409000AFF3008007E003AB00932A460F4B04A95F
:1040A000404600F0D7F9B0F1FF3F824603D0099BAC
:1040B0005344099342E7AB895B0601D4099801E0B8
:1040C0004FF0FF301DB0BDE8F08F00BF284F000853
:1040D0002E4F0008324F000800000000453E000847
:1040E000936810B4013B002B936008DA9469A342F3
:1040F00002DBCBB20A2B02D110BC00F025BB136847
:10410000581C10601970C8B210BC7047F8B506464C
:104110000F461446D518AC4208D03A4614F8011B95
:104120003046FFF7DDFF431CF5D100E00020F8BD6D
:104130002DE9F04F9DB00C4617460393064618B183
:1041400083690BB9FFF796FD7F4B9C4201D17468E0
:1041500008E07E4B9C4201D1B46803E07C4B9C425A
:1041600008BFF468A38918070CD5236953B100234D
:10417000099320238DF8293030238DF82A30DFF879
:10418000D4B144E02146304600F044FB0028EED094
:104190004FF0FF30D5E0039A111D12680391002AF9
:1041A00080F28C80524243F002000792049098F80B
:1041B00000302E2B00F08480032298F80010654810
:1041C00000F0C8FC48B14023CBEB000003FA00F03C
:1041D000049B08F101081843049098F80010062287
:1041E0005D4808F101078DF8281000F0B3FC0028A5
:1041F00000F09580594B002B40F08880039B0733DB
:1042000023F0070308330393099B53440993B846EB
:10421000454615F8013B1BB9B8EB07090FD003E081
:10422000252BF9D0A846F3E74B463A4621463046BF
:10423000FFF76CFF01307FD0099B4B44099398F83E
:104240000030002B78D000234FF0FF320493079307
:10425000059206938DF853301A9301270522297889
:104260003F4800F077FC05F10108049B38B13C4A57
:104270004546801A07FA00F018430490EEE7D90685
:1042800044BF20228DF853201A0744BF2B228DF8FB
:1042900053202A782A2A3FF47EAF079A00210A2069
:1042A000A84698F800300135303B092B03D800FBB5
:1042B00002320121F4E700293FF479AF079276E753
:1042C00098F801302A2B0BD1039B08F102081A1D24
:1042D0001B680392002BB8BF4FF0FF3305936BE7C9
:1042E00000231946059308F101000A25804698F835
:1042F00000200130303A092A03D805FB01210123AF
:10430000F4E7002B3FF458AF059155E703AB00935A
:104310002246144B04A93046AFF3008007E003ABFC
:10432000009322460F4B04A9304600F093F8B0F1F9
:10433000FF3F82467FF468AFA3895B063FF528AF55
:1043400009981DB0BDE8F08FC84E0008E84E00087F
:10435000084F00082E4F0008324F000800000000F0
:10436000284F00080D4100082DE9F04791461F46EF
:104370000A698B6806469342B8BF1346C9F80030F5
:1043800091F843200C46DDF8208012B10133C9F8C2
:1043900000302368990642BFD9F800300233C9F8CB
:1043A0000030256815F0060510D104F1190A07E060
:1043B0000123524639463046C04701301AD00135F4
:1043C000E368D9F800209B1A9D42F1DB94F8433052
:1043D0002268003318BF012392060FD5E118302060
:1043E00081F843005A1C94F845102244023382F8A5
:1043F000431003E04FF0FF30BDE8F08704F14302C3
:1044000039463046C0470130F4D02268D9F8005010
:10441000E36802F00602042A08BF5D1B2269A36854
:104420000CBF25EAE57500259342C4BF9B1AED1821
:104430004FF000091A344D4509D001232246394670
:104440003046C0470130D5D009F10109F3E700201B
:10445000BDE8F0872DE9F04317460A7E85B06E2A45
:10446000984606460C460C9B01F1430E00F0AE80C8
:1044700011D8632A22D009D8002A00F0BB80582A1C
:1044800040F0CA8081F84520834955E0642A1ED057
:10449000692A1CD0C0E0732A00F0B08009D86F2AC6
:1044A0002ED0702A40F0B8800A6842F020020A60DC
:1044B0003EE0752A24D0782A3AD0ADE01A6801F19E
:1044C0004205111D1960136884F84230A8E0216884
:1044D0001A6811F0800F02D0111D196008E011F068
:1044E000400F02F10401196002D0B2F9003000E07F
:1044F0001368002B3CDA2D225B4284F8432037E01E
:1045000021681A6811F0800F02D0111D196007E0B0
:1045100011F0400F02F10401196001D0138800E08E
:104520001368227E5C496F2A14BF0A2208221BE00E
:1045300078225A4984F845202268186812F0800FC2
:1045400000F104051D6003D1550601D5038800E084
:104550000368D00744BF42F0200222601BB92268E2
:1045600022F0200222601022002084F8430001E0A3
:1045700049490A226568002DA56008DB206820F003
:10458000040020602BB9002D7DD175460CE0002B76
:1045900079D07546B3FBF2F002FB1033CB5C05F823
:1045A000013D03460028F5D1082A0BD12368DA071C
:1045B00008D5236962689A42DEBF302305F8013CC2
:1045C00005F1FF35C5EB0E0323612EE008681A687C
:1045D00010F0800F496903D0101D1860136808E0BF
:1045E00010F0400F02F104001860136801D0198028
:1045F00000E0196000232361754616E01A68111D5A
:104600001960156800216268284600F0A3FA08B115
:10461000401B6060636804E004F1420584F84220B6
:1046200001232361002384F84330CDF800803B460A
:1046300003AA21463046FFF797FE013002D14FF022
:10464000FF3026E023692A4639463046C04701300C
:10465000F5D023689B0710D5002504F1190907E060
:1046600001234A4639463046C0470130E7D001357C
:10467000E368039A9B1A9D42F2DBE068039B984231
:10468000B8BF184605E00B7804F1420584F84230C3
:104690008AE705B0BDE8F083394F00084A4F0008AB
:1046A00038B5064C002305460846236000F056FB4B
:1046B000431C02D1236803B12B6038BDB80F002022
:1046C00010B50C46B1F90E1000F0E2FA0028ABBFAD
:1046D000636DA3891B1823F48053ACBF6365A3816A
:1046E00010BD2DE9F0411F468B890546DB050C46C0
:1046F000164605D502230022B1F90E1000F0B8F9D4
:10470000A389324623F48053A381B4F90E103B46AB
:104710002846BDE8F04100F06BB810B50C46B1F981
:104720000E1000F0A5F9431CA38915BF606523F4A2
:10473000805343F48053A38118BFA38110BDB1F906
:104740000E1000F0D5B80000F8B50F461446054627
:1047500018B183690BB9FFF78DFA224B9C4201D146
:104760006C6808E0204B9C4201D1AC6803E01F4B11
:104770009C4208BFEC68A369A360A3891A0709D506
:1047800023693BB123682069FEB2181A6369984215
:104790000FDB08E02146284600F03CF80028F1D065
:1047A0004FF0FF361BE02146284600F037F900287D
:1047B000F6D1A3680130013BA36023685A1C226034
:1047C0001F706369984204D0A389DB0707D50A2EBE
:1047D00005D12146284600F021F90028E0D13046D5
:1047E000F8BD00BFC84E0008E84E0008084F00089A
:1047F00038B5074C054608461146002222601A4685
:10480000FBF72AFE431C02D1236803B12B6038BD9D
:10481000B80F0020324B70B51D6806460C4625B116
:10482000AB6913B92846FFF725FA2E4B9C4201D1FC
:104830006C6808E02C4B9C4201D1AC6803E02B4B28
:104840009C4208BFEC68B4F90C309AB215071DD42D
:10485000D00602D4092232603AE0510712D5616BCA
:1048600041B104F14403994202D0304600F09EF970
:1048700000236363A38923F02403A38100236360DF
:1048800023692360A38943F00803A38123694BB9FB
:10489000A38903F42073B3F5007F03D0214630468B
:1048A00000F01CF9A28912F0010305D00023A360D7
:1048B00063695B42A36103E0920758BF6369A36029
:1048C00023695BB9B4F90C3003F0800080B230B1D9
:1048D00043F04003A3814FF0FF3070BD002070BD56
:1048E0006C000020C84E0008E84E0008084F000881
:1048F00038B5064C002305460846236000F006FA4A
:10490000431C02D1236803B12B6038BDB80F0020CF
:104910008A892DE9F041054610070C4659D44B68A9
:10492000002B02DC0B6C002B17DDE66AAEB102F443
:104930008052002392B22F682B600AB1606D15E09F
:10494000216A01232846B047411C0FD12B686BB167
:104950001D2B01D0162B03D12F600020BDE8F08164
:10496000A38943F04003A381BDE8F081A3895A07DE
:1049700005D56368C01A636B0BB1236CC01A0023A2
:104980000246E66A216A2846B047431CA38906D13D
:1049900029681D2939D8204ACA40D60735D50022B2
:1049A00062602269D904226004D5421C01D12B68BF
:1049B00003B96065616B2F600029CED004F1440318
:1049C000994202D0284600F0F1F800206063BDE86B
:1049D000F0810F69002FC0D093070E680CBF4B69A0
:1049E0000023C7EB06080F608B6002E00744C0EBB2
:1049F0000808B8F1000FB0DD43463A46216A284660
:104A0000A66AB0470028F1DCA38943F04003A381E4
:104A10004FF0FF30BDE8F0810100402038B50B6950
:104A200005460C46DBB118B183690BB9FFF722F9D3
:104A30000C4B9C4201D16C6808E00B4B9C4201D1AD
:104A4000AC6803E0094B9C4208BFEC68B4F90C3039
:104A50002BB121462846BDE83840FFF759BF00205A
:104A600038BD00BFC84E0008E84E0008084F0008D7
:104A700038B5074C054608461146002222601A4602
:104A800000F05CF9431C02D1236803B12B6038BDF0
:104A9000B80F002070B50E46B1F90E1090B0002985
:104AA00014461D4606DA00232B60B3891A060ED57C
:104AB00040230EE001AA00F0FDF80028F3DB029A83
:104AC00002F47042A2F500535A425A412A604FF450
:104AD00080630020236010B070BD00008B8973B527
:104AE0009E0705460C4610D401AB6A46FFF7D2FF7D
:104AF000009906462846FFF747F968B9B4F90C3023
:104B00009A0522D443F00203A38104F147032360F2
:104B100023610123636118E00D4BAB62A389206020
:104B200043F08003A381009B20616361019B4BB133
:104B3000B4F90E10284600F0CFF818B1A38943F05D
:104B40000103A381A0893043A08102B070BD00BFE2
:104B5000F53B000810B5C9B202449042034605D0A7
:104B60001C7801308C42F8D1184610BD002010BDD1
:104B7000884210B501EB020301D8421E0BE09842B7
:104B8000FBD28118D21AD34204D013F8014D01F898
:104B9000014DF8E710BD994204D011F8014B02F81D
:104BA000014FF8E710BD70477047000038B5054663
:104BB000002944D051F8043C0C1F002BB8BFE41866
:104BC000FFF7F1FF1E4A1368114613B963601460C2
:104BD00030E0A3420DD92268A018834201BF1868B3
:104BE0005B681218226063600C6023E0A24203D865
:104BF00013465A68002AF9D118681918A1420BD136
:104C00002168014458188242196013D11068526813
:104C1000014419605A600DE002D90C232B6009E0B1
:104C200021686018824201BF10685268091821602B
:104C300062605C602846BDE83840FFF7B5BF38BD0C
:104C4000F40D0020F8B5074615460E4621B9114669
:104C5000BDE8F840FFF798B81AB9FFF7A7FF284654
:104C6000F8BD00F049F885420ED929463846FFF7CD
:104C70008BF8044650B131462A46FEF76BFF3146A9
:104C80003846FFF793FF01E03046F8BD2046F8BDF7
:104C900038B5074C054608461146002222601A46E0
:104CA00000F054F8431C02D1236803B12B6038BDD7
:104CB000B80F002038B5074C0023054608461146BA
:104CC000236000F02BF8431C02D1236803B12B6052
:104CD00038BD00BFB80F002038B5064C002305468C
:104CE0000846236000F022F8431C02D1236803B178
:104CF0002B6038BDB80F002051F8040C0028BEBF4F
:104D0000091851F8043CC01804387047024B582267
:104D10001A604FF0FF307047B80F0020024B582246
:104D20001A604FF0FF307047B80F0020024B582236
:104D30001A600020704700BFB80F0020024B5822B5
:104D40001A604FF0FF307047B80F0020024B582216
:104D50001A604FF0FF307047B80F0020044A054931
:104D60001368002B08BF0B461844106018467047A4
:104D7000F80D0020C00F0020F8B500BFF8BC08BC3B
:104D80009E467047F8B500BFF8BC08BC9E46704709
:104D90009C4E0008E5020008000000000000000032
:104DA00000010000944E00081107000800000000F8
:104DB00000000000000100000203040506070809C6
:104DC0000A0B0C0D0E0F1010010200000D0A4675A3
:104DD0006E635F5461736B300D0A000043414E5F98
:104DE000525800000D0A4F4B0D0A00000D0A525890
:104DF0002053656E736F724F4B0D0A0025630000E0
:104E00000D0A31500D0A00000D0A32500D0A000043
:104E10000D0A33500D0A00000D0A74656D7065723D
:104E200061747572653A2564000000000D0A6875AA
:104E30006D69646974793A000D0A4963696E673A6D
:104E4000256400000D0A4C696768743A2564000007
:104E50000D0A7669736962696C6974793A25640030
:104E60000D0A5261696E66616C6C3A25640000003F
:104E70000D0A466C6F773A25640000000D0A7370C6
:104E80006565643A256400005372632F6D61696E35
:104E90002E6300005461736B310000005461736B2A
:104EA00030000000000000000000000001020304C8
:104EB00006070809000000000102030449444C45AC
:104EC000000000000C0000200000000000000000B6
:104ED00000000000000000000000000000000000D2
:104EE00000000000000000000000000000000000C2
:104EF00000000000000000000000000000000000B2
:104F000000000000000000000000000000000000A1
:104F10000000000000000000000000000000000091
:104F20000000000000000000232D302B2000686CE2
:104F30004C006566674546470030313233343536BC
:104F400037383941424344454600303132333435F5
:0C4F500036373839616263646566000022
:044F5C001502000832
:044F6000F101000853
:104F64000100000000A24A04AAAAAAAA00000000A4
:104F7400C84E0008E84E0008084F00080000000072
:104F8400000000000000000000000000000000001D
:104F9400000000000000000000000000000000000D
:104FA40000000000000000000000000000000000FD
:104FB40000000000000000000000000000000000ED
:104FC4000000000000000000000000000C000020B1
:0400000508003ABDF8
:00000001FF
